:020000021000EC
:10800000004000201D090200590902005B0902001E
:108010000000000000000000000000000000000060
:108020000000000000000000000000005D090200E8
:1080300000000000000000005F090200610902006A
:108040006309020055B50100750F020063090200C3
:1080500063090200000000009509020063090200A4
:1080600063090200F9110200FD0D0200630902001C
:108070006309020063090200630902006309020048
:108080006309020063090200630902006309020038
:1080900063090200C50602005DED010063090200EC
:1080A00063090200630902000000000000000000F4
:1080B00000000000000000000000000000000000C0
:1080C00010B5064C2378002B07D1054B002B02D0AE
:1080D000044800E000BF0123237010BD28220020C7
:1080E0000000000000D50200044B10B5002B03D0A7
:1080F0000349044800E000BF10BDC0460000000076
:108100002C22002000D50200164B002B00D1144B6E
:108110009D46402292029A1A924600218B460F46B3
:108120001348144A121A13F05EF80F4B002B00D0BC
:1081300098470E4B002B00D09847002000210400E8
:108140000D000D48002802D00C4800E000BF0DF0E3
:1081500005FC2000290012F0F7FD0DF0E9FBC046F8
:1081600000000800004000200000000000000000A7
:1081700018220020C02A002000000000000000009B
:1081800010B50400034B036040300FF005FB2000E6
:1081900010BDC046F0C10200F0B585B01F000AABAB
:1081A0001B880600029115000393002F1CD0282085
:1081B00001F010FB6B4604001989039BAAB20093DF
:1081C0003B000FF088FA336821005B683000984765
:1081D00000280AD0002C05D020000FF093FA2000D0
:1081E00001F018FB024800E0024805B0F0BDC046AF
:1081F00016FCFFFF17FCFFFF73B50100060001A886
:108200000FF021FB01220B4D01A9280010F09AFA72
:10821000040001A80FF0C0FA074B9C4208D10A20C5
:1082200001F096F9310001A80FF00DFB0222EBE7F7
:1082300073BDC046702200200DFCFFFFF0B597B063
:108240000393BF4B00901D7801910292002D40D105
:108250000122BC4907A81A7003F0F0FA07A80FF032
:1082600096FBB94B04001B78022B34D1290007A8D8
:108270000FF089FB0278042A25D1611C11A812F0A5
:1082800096FF119912A80FF0A4FAB04AB04915A8A8
:108290000FF0F0FA12AA15A914A80FF0EBFAAD4AE4
:1082A00014A913A80FF0E6FA13A8FFF7A5FF13A867
:1082B0000FF072FA14A80FF06FFA15A80FF06CFA0D
:1082C00012A80FF069FA00229D4B07A81A700FF050
:1082D00021FB17B0F0BD032BF5D103780C2B00D098
:1082E000B0E0411C042208A812F061FF9A4E089BDE
:1082F00032689342E7D116256D440222611D2800A1
:1083000012F055FF954F2A883B889A42DBD1E11D38
:10831000022206A81A2512F04AFF21006D440931F5
:108320000222280012F043FF210004220B3109A889
:1083300012F03DFF6B460AA8198BE47B0FF049FA57
:1083400029880BA80FF045FA09990CA80FF041FAFB
:1083500021000DA80FF03DFA0AAA814915A80FF0D7
:1083600089FA7A4C15A9220014A80FF083FA0BAAF7
:1083700014A913A80FF07EFA220013A912A80FF077
:1083800079FA0CAA12A911A80FF074FA220011A907
:1083900010A80FF06FFA0DAA10A90FA80FF06AFA33
:1083A0006C4A0FA90EA80FF065FA0EA8FFF724FF7C
:1083B0000EA80FF0F1F90FA80FF0EEF910A80FF0CA
:1083C000EBF911A80FF0E8F912A80FF0E5F913A8DE
:1083D0000FF0E2F914A80FF0DFF915A80FF0DCF99F
:1083E000092114A80FF0C0FA14A80FF0D0FA0E2338
:1083F0000400037004223100013012F0D8FE022282
:108400003900601D12F0D3FE02222900E01D12F097
:10841000CEFE14A915A80FF084FA15A9494810F04A
:1084200007F915A80FF076FA14A80FF073FA0DA843
:108430000FF0B2F90CA80FF0AFF90BA80FF0ACF9E0
:108440000AA83EE70D2B00D03DE7411C04220EA8F0
:1084500012F0ADFE404F0E9B3A68934200D032E7D7
:108460000CAD0222611D280012F0A1FE3B4E2A88AD
:1084700033889A4200D026E70DADE11D0222280084
:1084800012F095FE210004220B310FA812F08FFE8E
:10849000298810A80FF09DF90F9911A80FF099F9EC
:1084A00010AA304915A80FF0E5F9284A15A914A813
:1084B0000FF0E0F911AA14A913A80FF0DBF9254A6F
:1084C00013A912A80FF0D6F912A8FFF795FE12A86B
:1084D0000FF062F913A80FF05FF914A80FF05CF920
:1084E00015A80FF059F9092114A80FF03DFA14A8A6
:1084F0000FF04DFA0F2304000370042239000130FD
:1085000012F055FE02223100601D12F050FE0222D0
:108510002900E01D12F04BFE14A915A80FF001FA76
:1085200015A9084810F084F815A80FF0F3F914A85D
:108530000FF0F0F911A80FF02FF910A8C1E6C0460E
:10854000EA29002050260020EB29002044220020A8
:10855000582200204822002068220020982900206C
:108560004C22002054220020F0B58FB002900391DD
:108570000DA8D349049205930FF065F9D14C02235D
:1085800021000DAA07A803F08BFB0DA80FF004F93A
:10859000200003F035FACC4D00212C7807A8012CDF
:1085A00000D00DE10FF07CF9312834D1C74B08A879
:1085B00019680FF00EF900F01BFD010009A801F089
:1085C00015FAC34908AA0AA80FF054F90AA90BA87A
:1085D000C04A0FF04FF909AA0BA90CA80FF04AF9ED
:1085E000BD4A0CA90DA80FF045F90DA8FFF704FE30
:1085F0000DA80FF0D1F80CA80FF0CEF80BA80FF0D3
:10860000CBF80AA80FF0C8F809A80FF0C5F808A819
:108610000FF0C2F8C3E0002107A80FF041F932289B
:108620006CD1079B009302229B5EA34217DD21B20F
:1086300007A80FF035F909280FD1631E1BB20122DC
:1086400007A90DA801F012FA0D9B181D009312F056
:108650008EFD0A900DA80FF09FF80134E1E701F0BC
:1086600081F99E4B18211B68C01A0B900CA80FF0C3
:108670007BF90CA80FF08BF905230400037004228A
:108680000AA9013012F093FD022209A9601D12F01F
:108690008EFD04228D49E01D12F089FD2000042288
:1086A0000BA90B3012F083FD200002228C490F3001
:1086B00012F07DFD200004228A49113012F077FD6E
:1086C0002000894B02221B7888496375163012F00E
:1086D0006EFD200002228649173012F068FD0CA9B9
:1086E0000DA80FF01EF90DA982480FF0A1FF0DA8EB
:1086F0000FF010F90CA80FF00DF950E0002107A8B9
:108700000FF0CEF833284AD100252700079B0093AD
:1087100002229B5EA34239DD26B2310007A80FF08A
:10872000BFF809281DD13AB2B31A1BB20DA807A988
:1087300001F09CF90D9B0093181D002D04D112F03F
:1087400016FD674B188007E0012D0CD112F00AFDD1
:108750000BF0B2FC634B18600DA8671C01350FF0DD
:108760001BF80134D2E7022D04D112F000FD5E4B5C
:108770001870F1E7032D03D112F0F9FC5B4BF7E71A
:10878000042DE9D112F0F3FC594BDBE701F0EAF8D4
:108790000022524B18605A604B4B02321A70484903
:1087A0000DA80FF050F800220DA9464803F014F967
:1087B0000DA80EF0F1FF07A80EF0EEFF0FB0F0BD10
:1087C0000FF06EF831280DD1404B08A819680FF052
:1087D00000F800F00DFC010009A801F007F908AA53
:1087E0004549F0E6002107A80FF05AF8342800D0D8
:1087F00086E00123012400265B420BAF3B8001335E
:10880000FF3301930094079B02229B5EA34227DD66
:1088100025B2290007A80FF043F8092817D16B46A5
:1088200000229A5E0DA8AB1A1BB207A901F01EF92F
:108830000D9B0093181D002E0BD112F098FC0BAB72
:108840001880631C0DA8009301360EF0A5FF0134BB
:10885000D9E7012EF5D112F08AFCC3B20193F0E7FB
:108860000A210CA80FF080F80CA80FF090F806234E
:108870000400037004221549013012F098FC022212
:108880001749601D12F093FC02223900E01D12F01E
:108890008EFC6B461B7902216372184802F0B6FE0B
:1088A0000CA90DA80FF03DF80DA912480FF0C0FE5D
:1088B0000DA80FF02FF80322034B1A701AE7C046D9
:1088C0005022002070220020EB2900206822002086
:1088D000602200204422002048220020182200208C
:1088E0009829002064220020EC290020ED29002096
:1088F0009A290020502600205C22002038260020E3
:10890000002107A80EF0CCFF35281AD101210CA8B0
:108910000FF02AF80CA80FF03AF80A23022103708E
:10892000184802F073FE0CA90DA80EF0FAFF0DA96D
:1089300015480FF07DFE0DA80EF0ECFF01232B7003
:10894000D8E6002107A80EF0ABFF362800D026E7B6
:1089500001210CA80FF008F80CA80FF018F80B2351
:1089600002210370074802F051FE0CA90DA80EF079
:10897000D8FF0DA904480FF05BFE0DA80EF0CAFF4A
:108980000423DCE73826002050260020F0B585B00F
:108990000EF0CAFD01274C4B4C4D18604C482F700F
:1089A00000F02AFA4B4C4021200002F0DFFA4A4E38
:1089B0002021300003F054FA5021300003F090F8E9
:1089C000E1213000490202F0D5FF10233A00009364
:1089D0002021424B4248FFF7DFFB424903A80EF03B
:1089E00032FF002203A9300002F0F6FF03A80EF0C8
:1089F000D3FE9037FF372B783B4E042B4ED001210E
:108A0000300002F003FE394903A800F0EFFF3A00FE
:108A100003A9200002F0F4F903A80EF0BDFE2B78A4
:108A2000012B04D1FA20800000F092FDF7E73049D5
:108A300003A800F0DBFF3A0003A9200002F0E0F9F0
:108A400003A80EF0A9FE10231D2100930122294B3B
:108A50002348FFF7A1FB300002F0ECFD07213000B6
:108A600002F008FD2B78022B04D1FA20800000F0E0
:108A70006FFDF7E7204903A800F0B8FF3A0003A90B
:108A8000200002F0BDF903A80EF086FE2B78032B20
:108A9000B1D1FA20800000F05BFDF7E7174903A889
:108AA00000F0A4FFC82203A95200200002F0A8F998
:108AB00003A80EF071FE300002F07EFD00F0C0FD54
:108AC000002005B0F0BDC04668220020EB29002040
:108AD0006C220020582300207022002069850100AC
:108AE0003C230020502200203826002084CE0200A3
:108AF00086CE02003D8201008BD1020088CE0200AA
:108B000070B52E4D280000F0B7F82D4C2D492200ED
:108B1000280012F019FB2C4E2C49300000F066FFA3
:108B20002B4D22002900300012F00EFB294E2A495D
:108B3000300000F05BFF22002900300012F004FB3F
:108B4000264E2749300000F051FF22002900300056
:108B500012F0FAFA234E2449300000F047FF2200B9
:108B60002900300012F0F0FA204E2149300000F0C8
:108B70003DFF22002900300012F0E6FA1D4E1E498A
:108B8000300000F033FF22002900300012F0DCFA40
:108B90001A4E1B49300000F029FF22002900300046
:108BA00012F0D2FA174E1849300000F01FFF2900CA
:108BB0003000220012F0C8FA70BDC0466C220020BE
:108BC000002000200D8C0100482200203CCE020035
:108BD00099770200502200203DCE0200582200204A
:108BE00040CE02004422002056CE02006022002027
:108BF00044CE02005C22002058CE02004C2200200D
:108C00007ACE0200542200207FCE0200EB23194AC4
:108C10009B0010B5C2501C330400C0180EF0BCFD00
:108C2000F1239B00E0180EF0B7FD84239B00E018B1
:108C300001F060FA2000C530FF3000F07FFF200017
:108C40008D30FF3001F01CFA20006530FF3001F05C
:108C500017FA2000EC3001F0EFFE2000D03002F0D7
:108C6000C5FA2000643007F0B1FD201DFFF788FA37
:108C7000200010BDECC302001423F0B5040095B031
:108C8000009319221821043002F07EFE22002700F2
:108C90006432B43713211000119207F0A3FD38009D
:108CA0000FF098FD2200B83210921E210022109879
:108CB0000FF0E8F92000D03002F0B8FA2200EC32D0
:108CC00012920621494A129801F0DAFE200000268D
:108CD000012365301A0000961121FF3001F0DCF904
:108CE00020008D300096012302221A21FF3001F06E
:108CF000D3F925002000C535B530FF351A230222EF
:108D00000121FF3002F050FB109904233A22280081
:108D100000F0C4FF84229200A218139205231D22A2
:108D2000019300923B002A001099139801F0D8FBA0
:108D300096229200129BA01813992A0001F0AAFD16
:108D400099229200A01839001C2203F0A7F91923D8
:108D50009F220F93013B0E93013B0D93013B0C931C
:108D6000013B0B93013B0A93013B0993013B0893A1
:108D7000013B0793013B0693013B0593013B0493A1
:108D8000013B0393013B0293013B01939200013BA2
:108D9000A01800930822013B07210FF07BF9EB2379
:108DA0009B00E018390003F019FDF3239B00E01845
:108DB0001D2102F03FFBFD239B00E6501198267019
:108DC000032111F0D0FE23002200200008499C332B
:108DD000A0321C6011605660064A80305A61022140
:108DE000012207F089FE200015B0F0BDF8C1020095
:108DF000217402000B7402000123F0B506788DB0D7
:108E000004001E4000D0A4E0FD20800500F0AAFC74
:108E10002300D0331800029300F07EFA00F0A4F98A
:108E2000282000F0D7FC050010300EF046FD4A4B1C
:108E300018202B6000F0CEFC0700484B046008228D
:108E400031000C300A930B9612F0CDF90AA9381DA7
:108E5000082212F0ACF9424B29007B611223AF606B
:108E6000EE60AB802E626E62029802F057F9002825
:108E700005D028000EF046FC280000F0CBFC0123B2
:108E8000227864201343237000F062FB0025270042
:108E90006537FF3738000EF0D3FE002855D020008C
:108EA0008D30FF300EF0CCFE00284ED00A2D4CD075
:108EB0006420013500F04CFB0A2DE8D129492A48ED
:108EC00000F026FCEB23FD269B00E318B60003937D
:108ED000A359002B32D100F057F8010006A800F08A
:108EE00085FD0EF021FB04900EF01EFB6B460590F5
:108EF000198A08A80EF06DFC059B09A8190C0EF044
:108F000068FC09AA08A907A80EF0B4FC09A80EF08D
:108F100043FC08A80EF040FC012307AA06A9009311
:108F20000398029B03F0AEFC07A80EF035FC06A8E0
:108F30000EF032FCED239B00E358A35121003A00D0
:108F4000EC31039803F044FEA1E70649074800F01E
:108F5000DFFB0DB0F0BDC046FD03000093740200BE
:108F60005374020000200020001C00200800002094
:108F7000BFF34F8F024B034ADA60BFF34F8FFEE718
:108F800000ED00E00400FA05F0B58DB005AF192240
:108F90001549380012F00BF90022144B05245A71C0
:108FA00080225205566E01222500019402920393FD
:108FB0000199300008F0B0FA0800029908F026FA8A
:108FC000019B03996B430193029B361A6B430293F7
:108FD000631E2C1B6C433C19225C1C1ECA54E7D137
:108FE00008000DB0F0BDC046C0CE0200EE29002042
:108FF00000487047D9CE0200F0B597B01822002182
:10900000060010A812F0EFF8132110A811F007FFC6
:10901000032110A811F099FF4C4B1B68002B00D1C5
:109020000133DBB202934A4A012300210BA807F067
:10903000D1FE484B9E4200D9002672B6464B6421B1
:109040001D68464B30000793052408F069FA604319
:109050005030281808900A21300008F061FA0A21DF
:1090600008F044FB614350316918099130000A212E
:1090700008F03CFB802361430024503169189B01B8
:109080000A910193029B002B5DD0002500272E1F23
:1090900007AB9B190593032C03D1802300249B016C
:1090A000019307AB5B592E4A03936300D3180493D3
:1090B0000023190006205843049A16187678B446FF
:1090C0006246039EB25C10269446049A105C624687
:1090D0000641164202D00120984001430133092B7A
:1090E000E8D1C9431F4B059A090119401268039B37
:1090F000934225D1312F23DC00210BA811F0DEFF94
:10910000FA23159A1199DB00106801421BD0013B2C
:10911000002BF9D1019B01345B000193FA23013745
:10912000E4B25B009F42B6D10435102DAED1074B9F
:109130001B68002BA6D0029F013FFBB20293A1E760
:10914000019B1943D9E7FFF713FFC04668260020AB
:10915000F0FF0000E70300000420002025CF0200FC
:10916000EFCE0200F01F0000F8B50023124C236080
:109170000EF0CCF9002808D0042120000EF0C2F92E
:10918000002801D00D4B2360F8BD0122A127042542
:109190000B4B0C491A602268FF0048604E68002E95
:1091A000FCD0DE591202013D3243002DF5D1226080
:1091B00001225A60E8E7C04664260020ED5EBC0B41
:1091C00000D00040FCD000400B4B70B51C68002C58
:1091D00010D0656D00F0C6FBA36C002901D183425D
:1091E00006D820000EF0C5F9044920000EF0AFF9B2
:1091F0002C00ECE770BDC0467026002090260020B1
:10920000F0B593B007932A4B04AC1E680490059107
:109210000692002E4AD0274B258867881C680023B9
:109220000293002C2ED0636D23480393A36C9AB253
:10923000A36C1B0C99B2854214D12048824211D1F3
:10924000002B01D0B9420BD1029B002B08D120008A
:109250000EF08FF91A4920000EF079F901230293DC
:10926000039CDEE7002A01D09542F9D1002B01D002
:10927000B942F5D120000EF07CF9114920000EF022
:1092800066F9EDE70F4BEB18012B0FD910233A00CD
:10929000009329000C4B08A80EF01DFA336808A9AA
:1092A0009B683000984708A80EF02CFA13B0F0BD68
:1092B0006C2600209C260020FE030000FF03000017
:1092C0009026002002FCFFFF0192010010B572B64B
:1092D0000B4B1C68002C08D020000EF04AF900232C
:1092E000E364084B2000E36310BD62B65C2000F02D
:1092F00071FA5C220021040011F075FFEFE7C0460F
:109300009426002000400020024B187801231840CA
:109310007047C046F4290020F7B50600FFF7F4FFB8
:10932000051E33D11A4C2660FFF7D0FF194B1A499E
:1093300018600EF00CF9FFF7C9FF184B1860184BB6
:109340004363184B8363206800280ED0C027164E55
:109350002A00330015490097FEF71EFF00973300DF
:109360002A0013492068FEF717FF0C2000F032FA9C
:109370000023838083710F4B03600F4B836000F0E9
:1093800009FB01230D4A11780B431370F7BDC0464A
:109390006C260020A0260020902600209826002081
:1093A000FC3F00203976020001920100FF0300001B
:1093B000FE03000018C20200C9910100F429002038
:1093C000F7B506000D0017000193002802D1002414
:1093D0002000FEBD0029FAD0FFF778FF041EF6D06A
:1093E000074B019A4363066045608760054B002A7E
:1093F00000D0054BA363054920000EF0A8F8E7E76D
:10940000FC3F002003760200217602009026002017
:10941000024B1868434258417047C04690260020CE
:10942000002310B504499C006258002A01D0013382
:10943000F9E76050100010BD78260020002310B519
:10944000044A99008C58844201D00133F9E7002086
:10945000885010BD7826002010B50024084BA200CB
:10946000D058002802D003685B6898470134062C66
:10947000F4D1044B1B68002B00D120BF10BDC046A7
:109480007826002090260020F8B5FFF73DFF002841
:109490001BD0294D2C68E36CDA0717D5022633431D
:1094A000E3640423254F3868C26C1343C364636BC1
:1094B000C3630EF084F83868416C03F086FF2868B7
:1094C000C36C334201D003F0BAFFF8BD1C4F1D4EF0
:1094D0003A683168002A1ED129602A688A4208D178
:1094E0001B0706D52C60FFF7B7FF3B68002BFAD0AF
:1094F0002B6029688C42E8D03368994214D1124B12
:109500004B63124B8B6320000EF059F82968626C94
:109510004B6C20000DE0206DB84203D1606D002837
:1095200000D002002A60D8E79C42ECD10022100053
:109530004B6C03F009FFC8E7A0260020742600202A
:109540009026002098260020FC3F0020397602005B
:1095500070B50500FFF7D8FE002803D1280011F0F0
:10956000EDFC70BD0C4B1C68E36CDB0706D5FFF708
:10957000ADFE0A4B1860002800D0040000F0F2F99C
:109580002D18A56420000DF0F4FF054920000DF012
:10959000DEFFFFF779FFE4E7A02600207426002015
:1095A00070260020F0B51E4B1E4F1C683B6885B02E
:1095B00006000391002B30D0FFF7A6FE00282CD028
:1095C000E36CDB070ED5FFF781FE174B051E186015
:1095D00008D00DF0CEFF154928000DF0B8FF2C0083
:1095E000FFF752FF039B20001B043343A3640DF0DD
:1095F000C0FF20000E490DF0AAFF0E4B0024F31807
:10960000012B07D9C0230093039A0B4B3100386814
:10961000FEF7C2FD200005B0F0BD084CFAE7C046D9
:10962000A02600206C260020742600209026002012
:109630009C26002002FCFFFF0192010016FCFFFFA8
:1096400010B5FFF761FE002809D0054C20680DF029
:1096500090FF044920680DF07AFFFFF715FF10BD59
:10966000A026002094260020F7B507000D00002852
:109670002ED0FFF749FE00282CD00724164E306864
:10968000C36C1C4007D0154A290038000DF088FF34
:1096900000242000FEBD03F0BAFE02213268D36C24
:1096A0001940019103D003218B43D364F1E70124D6
:1096B0002343D3642800B8473268D36C1900A14310
:1096C000D164019C5B07E4D528000DF0A1FFE0E721
:1096D000034CDEE7034CDCE7A026002011760200F5
:1096E00017FCFFFF16FCFFFF020010B5014B12CB69
:1096F00012C210BDA4260020034B1A68034B1A6047
:109700007E225A607047C04604200020A426002014
:1097100070B5104D2B78022B18D0814218D90B1A36
:10972000072B15D90C00032304431C4010D172B63B
:109730002A78094BD200D050981841600DF082FF72
:109740002B7801332B7062B6200070BD0348FCE714
:109750000348FAE7F5290020AC26002013FCFFFFA0
:1097600017FCFFFF70B50021041C07F0E1FF002883
:1097700028D1FE21201C890507F0E4FF002821D113
:1097800004300CF00FF905000F48401B08F0BAFF39
:10979000211C08F057FC08F009F803239843040043
:1097A00028000CF009F920000CF0FCF8002804D186
:1097B000203C002CF7D1054803E00119FFF7A8FF72
:1097C000002070BD0248FCE70038002013FCFFFFBA
:1097D00017FCFFFF70B5060000250C4B1B78AB4251
:1097E00009DD0B49EB00C91830000DF033FF041EF2
:1097F00009D10135F1E730000CF0D4F8041E02D194
:109800001420FFF7F9FB200070BDC046F5290020A9
:10981000AC26002070B5002813D00D4B0D491C78E4
:1098200000239C4210DDDA00555885420AD28A187E
:109830005268824206D98023043802681B0613430B
:10984000036070BD0133ECE70CF0B6F8F9E7C046F1
:10985000F5290020AC26002070B5051E14DD0B4E46
:109860000B4C3368002B02D0206811F0F2F9FA217A
:1098700020680024074B89008361C4626943356016
:1098800011F0EFF9200070BD0348FCE7BC26002072
:10989000EC2600204199010017FCFFFFF8B5114F9D
:1098A00006003D68002D0AD13020FFF793FF040029
:1098B00006F0F2FF0C4BA5612360E5623C600B4DA6
:1098C0002B68002B09D11020FFF784FF040011F052
:1098D00014FA20002C6011F0EAF93000FFF7BCFF09
:1098E000F8BDC046EC2600209CC70200E8260020F8
:1098F000014B18687047C046BC26002070B50D4C5F
:109900002368002B03D00C4B1B68002B02D10620D0
:10991000FFF7C4FF206811F0E1F902000749C317FF
:109920000D684E685219734120680A604B6011F04F
:10993000DBF970BDE8260020EC2600202022002064
:1099400010B5FFF7DBFF0024054BA200D05800281C
:1099500002D003681B68984701340A2CF4D110BD6B
:10996000C026002010B5FFF7C9FFFA22034B920072
:1099700018685968002307F0F9FE10BD2022002066
:1099800010B5FFF7BBFF024B1868596810BDC04601
:10999000202200200B4B10B51B680400002B03D0C5
:1099A000094B1B68002B02D10620FFF777FF00232D
:1099B000064A99008858002801D00133F9E78C50F5
:1099C00010BDC046E8260020EC260020C02600205E
:1099D000002310B5044A99008C58844201D0013309
:1099E000F9E70020885010BDC026002010B5040003
:1099F000002902D00B78002B03D1034B23602000F9
:109A000010BD0DF0D0FEFAE728C20200F8B5040040
:109A10000E00150000290AD00B78002B07D0002A71
:109A200005D0080097B211F01EFC874203D90B4BFA
:109A300023602000F8BD681DFFF7CCFE20600DF00C
:109A4000ACFF23682A005F8023683100181D11F0E5
:109A5000AEFB23685D1900232B71EAE728C20200E0
:109A6000014B03607047C04628C2020070B5096808
:109A700004000225485F824206DB094B186820601B
:109A80000DF08EFF200070BD801A984200DD180096
:109A900000B20431891802002000FFF7B7FFF1E798
:109AA000F026002010B50548054C20600DF078FF29
:109AB000044A0549200011F047FB10BD28C20200EE
:109AC000F02600200020002099770200084B73B593
:109AD0001C680500002C0AD0010026680831082205
:109AE000684611F064FB0CCD31682000884773BDD7
:109AF000F426002010B5054C012120000DF034FFA4
:109B0000034A0449200011F01FFB10BDF826002075
:109B100000200020157902000388074A10B50120B3
:109B2000934208D0834202D00020DB0703D41E20DA
:109B3000FFF762FA002010BDFFFF000010B504001F
:109B4000034B08330360FFF779FC200010BDC046CB
:109B500070C20200FA2270B5438992005343314A21
:109B600031491400050038348B421BDC2F498B42ED
:109B700018D82F49083C8B4214D82E49083C8B42F8
:109B800010D82D49083C8B420CD82C49083C8B42FC
:109B900008D82B49083C8B4204D82A4914008B4230
:109BA00000D90834284B2A7B1E1D042A03D89E1C8A
:109BB000022A00D81E00FA212068890007F026FC3E
:109BC000337868812B7300222A2128000DF00CFFC6
:109BD000002801D01D4870BD10222B2128000DF057
:109BE00003FF0028F6D101222D2128000DF0FCFEF4
:109BF0000028EFD101222E2128000DF0F5FE0028CB
:109C0000E8D172780E2128000DF0EEFE0028E1D197
:109C1000012223792A211A4328000DF0E5FE0028AD
:109C2000D9D0D7E730C2020000C409000071020099
:109C300080380100204E000010270000881300002B
:109C4000C4090000E204000005D102000EFCFFFF81
:109C50007FB515000F226A4404001E001170002D0C
:109C600016D0002B14DD012301890093006B01F055
:109C7000D1F9002802D0074804B070BD00902189B6
:109C800033002A00206B01F07BF90028F4D0F2E7C2
:109C90000148F1E70EFCFFFF17FCFFFFF7B50600D8
:109CA000002501931E4B14360833040003608580A1
:109CB0008571C581058245820F0000922900182216
:109CC000300011F090FA1C21300011F0A8F86B461A
:109CD0009B880221A3806B461B88220023811423CA
:109CE000A5712173A563A58763813E32137827632D
:109CF0008B43F1310B401370230095729581013530
:109D0000221DD5870833A21DD5872000DD87FFF7E8
:109D100021FF002802D1A3791D43A5712000FEBDBB
:109D200070C2020030B50425837987B004002B424D
:109D300004D1FFF775FBA3791D43A571A36AA2693E
:109D40001B6800251A4208D106236A46012120001B
:109D5000FFF77EFF051E03D0114D280007B030BD70
:109D60006B460222042069469A561856237BD2007D
:109D70005A43228202220978C00049B2C9005943DD
:109D800043436382A379E1819343A37120000DF0E3
:109D900039FE0123A1881A0002A80DF098FDDCE726
:109DA0000EFCFFFFF8B50400FFF7BCFF0E22A35E18
:109DB000794F5B42BB4251DA23003E331B789B074D
:109DC0004CD50125210028003E310B785A089043DC
:109DD00002000220AA40834313430B702000FFF7C8
:109DE000A1FF1022A35E5B42BB4248DA23003E3350
:109DF0001B785B0743D50125210028003E310B78F5
:109E00009A08904382000420834313430B7026007A
:109E10002000FFF787FF1222A35E4836BB423EDADE
:109E200023003E331B781B0739D5210001223E3128
:109E30000B78D80882430820D200834313430B7069
:109E40003378032B3BD80133DBB23370012B00D0C6
:109E50008DE0230000224A331A8030E02000FFF713
:109E600061FF0E22A35EC8225B425200002593428E
:109E7000B4DD23003E331B789B07A2D5AEE720005C
:109E8000FFF750FF1022A35EC8225B4252009342AC
:109E9000BDDD23003E331B785B07ACD5B7E7200060
:109EA000FFF740FFC8231221625E5B009A4204DD87
:109EB00023003E331B781B07B7D5002DC0D1327865
:109EC000002A14D02100270001254A310B883E3793
:109ED00001339BB20B803878AC46054055D01D2B22
:109EE00005D963469843002338700B8033702000F7
:109EF0000DF0F4FD294A0723904244DD2000FFF7CE
:109F000011FF0E23E25E264E52420323B2423ADB99
:109F1000C8252000FFF706FF0E23E25EAD00524287
:109F20000423AA422FDC2000FFF7FCFE1023E25E90
:109F300002235242B24226DB2000FFF7F3FE102339
:109F4000E25E01235242AA421DDC2000FFF7EAFE36
:109F50001223E25E0523B24215DB2000FFF7E2FE8A
:109F60001223E25E0623AA420DDC00230BE0042B41
:109F7000A5D122003E321178033B0B43137000231E
:109F80004A3423800B331800F8BD092BAFD9013AAE
:109F90000D803270ABE7C04670FEFFFFFF7002001D
:109FA000E0FCFFFF70B5C369C1681A68451D8AB03F
:109FB0000400EB7F114255D0002B58D1EB7F082BCA
:109FC0000DD90122A379134209D11343A371A188AA
:109FD000130006A80DF07BFCFFF7C4FC2062EB7FAA
:109FE000012B23D80123A2791A421FD00025A18872
:109FF000A571022202A80DF06AFCA31DDE7F012ECE
:10A0000014D1FFF7AFFC2B00226A801A994100900F
:10A010000191019BA188AB4203D1174B009A9A4250
:10A0200027D90123042206A80DF051FC0322A379AD
:10A030001340012B14D1FFF795FC0023226A801AEC
:10A040009941994202D10D4B984209D90223A27934
:10A05000A1881343A3710522012306A80DF037FC44
:10A060000AB070BD0B2BA9D80133EB77A6E7013BF3
:10A07000FBE733000322D6E7E7030000DB0500001F
:10A0800010B50400034B08330360FFF7A1FC200068
:10A0900010BDC04688C20200F0B5070000250E00C2
:10A0A00085B002930AAB1B7808370393104B04006A
:10A0B00008330360019285808571290018223800D9
:10A0C00011F091F8039A3100380010F0ADFE6B46A4
:10A0D0006A469B88127AA380A31DE671DA77631D16
:10A0E00025622000DD77FFF755FC200005B0F0BDAC
:10A0F00088C2020010B50400034B08330360FFF769
:10A100009DF9200010BDC046F8C202007FB51500C1
:10A110000F226A4404001E001170002D16D0002B7F
:10A1200014DD012301890093C06B00F073FF002848
:10A1300002D0074804B070BD0090218933002A0086
:10A14000E06B00F01DFF0028F4D0F2E70148F1E7D2
:10A150000EFCFFFF17FCFFFF002330B585B003ACFA
:10A16000217001890093050001332200C06B00F0CB
:10A1700051FF002802D0094805B030BD2080298950
:10A18000009002232200E86B00F0FAFE0028F2D1D2
:10A19000237860781B02184300B2EDE70EFCFFFF46
:10A1A00013B56B46DC1D0023220023700133FFF73B
:10A1B000ADFF002801D1207816BD0148FCE7C0465C
:10A1C0000EFCFFFFD0B504000DF062FDE268A3694C
:10A1D000981A09F0E5FE06000F002369E069C01A2D
:10A1E00009F0DEFE32003B000AF028FA0022104B94
:10A1F00009F0E6F80F4A104B08F0E0FD09F05CFFAB
:10A200000021041C07F08AFA002804D0201C0B4906
:10A2100007F0A6FB041C201C09F0FCFE02000B004A
:10A220000020074909F03EFB09F084FED0BDC0467E
:10A2300000806640EA2E4454FB2109400000B443EC
:10A2400000807640F0B5050085B0006C0DF0E3FCB1
:10A25000061C286C0DF0D6FC0221071C28000DF00E
:10A2600048FD0221039028000DF055FD08F000FA8A
:10A270000221041C28000DF060FD08F0F9F9051C0E
:10A28000301C0AF09DF90290301C0AF05BF9019035
:10A29000381C0AF095F9061C381C0AF053F9071C03
:10A2A000039808F0E5F9391C07F0CCFE311C071CB7
:10A2B000201C07F0C7FE029907F0C4FE011C381CE1
:10A2C00007F04EFB311C071C281C07F0BBFE019950
:10A2D00007F0B8FE011C381C07F042FB0299061C6F
:10A2E000281C07F0AFFE0199051C201C07F0AAFEF0
:10A2F000011C281C07F0D8FF311C0AF0A3F90D49F6
:10A3000007F0A0FE09F086FE0B4A0C4B08F056FD44
:10A3100009F0D2FE0021041C07F000FA002804D046
:10A32000201C044907F01CFB041C201C08F080F9C9
:10A3300005B0F0BD0000B443EA2E4454FB2119409F
:10A3400070B50022102104000DF094FC1B4D002874
:10A350002DD1032608212000FFF722FFA84226D096
:10A36000304226D1FA216389890059435023144A87
:10A37000D518D058884204D3D518083B18000830A7
:10A38000F7D1FA212868890007F040F8A0226081FF
:10A39000112120000DF06EFC002808D101222B793C
:10A3A00010211A4320000DF065FC002800D003485E
:10A3B00070BD6420FFF7CCF8CCE7C0460EFCFFFF71
:10A3C000A0C202007FB50425837904002B4218D176
:10A3D00002260DF05DFCA379A188B3432B43A37142
:10A3E0000622012368460DF072FAA079030030407E
:10A3F000AB43A37143425841034B4042184004B061
:10A4000070BD0248FBE7C04614FCFFFF15FCFFFFD0
:10A4100010B5837904005A070DD49B0701D4FFF7C8
:10A42000D1FF236C2000002B02D0FFF70BFF10BDE3
:10A43000FFF7C8FEFBE70148F9E7C04615FCFFFF40
:10A4400070B5466C86B001AC050001916260A360F6
:10A45000002E0CD00B4905A8FFF7C8FA0C232200E8
:10A4600005A930000EF0F5F905A80DF095F92B00BF
:10A470000C3307CC07C30223AA791343AB7106B090
:10A4800070BDC0460BD10200642330B504000281C8
:10A49000438185B08180FFF753FF0222A379606C6E
:10A4A0009343A371002813D00C490EF099F9051EAF
:10A4B0000ED001000C22103101A810F078FE20000F
:10A4C0000199029A039BFFF7BBFF2800FFF7A2F94F
:10A4D0000123A2791343A37105B030BD0BD1020053
:10A4E000F7B5009308AB1B880400019309AB1D88E6
:10A4F00000230F0016000D4A83800832837102602A
:10A50000C360036143618361C36103621D21243021
:10A510000DF0A3FB009BE763266429002000636421
:10A52000019AFFF7B1FF2000FEBDC046F8C202004D
:10A5300082B0F0B50400A5B064202B932A9210F0ED
:10A54000FDFC04220C2109A802F0DAFF2422CC49E8
:10A550001BA810F02CFE052206A811000FF047FAE8
:10A56000C84907A803F078F8A06800F081FBA56847
:10A57000C54918A8FFF73AFA782218A9280000F070
:10A58000A5FC18A80DF008F96E256420013D10F017
:10A59000D5FC002DF9D1A06800F06AFBA0680DF091
:10A5A0006CFD012160680DF0ADFA012107006068C3
:10A5B0000DF0BBFA06000A2010F0C0FC0022B34BDD
:10A5C00003929F4210DB013203923A00C8320BDB48
:10A5D000C822042192000391974205DC03220392D2
:10A5E000C82F01DC013A039200279E420CDB3300A6
:10A5F0000137C83308DBC82303379B009E4203DCC6
:10A60000013FC82E00DC013F06A80FF0E7F9002645
:10A61000032373431BA9CA189078002805D0C95C8E
:10A620005278FF2306A802F0ABFF01360C2EEFD1C3
:10A630006B463AB20C21595E06A8FF2302F0A0FF38
:10A640000023A06800931A00743006A90FF0D6F911
:10A65000002304930323049A039853431BAA995C91
:10A66000814237D1D31805935B78BB4232D1059B29
:10A670009E78002E2ED1310020680DF03AFB07F0B5
:10A68000F7FF3200031C290009A80EF06BFB310014
:10A6900020680DF040FB07F0EBFF0122031C2900AE
:10A6A00009A80EF05FFB310020680DF046FB07F0B3
:10A6B000DFFF2900031C022209A80EF053FBFE2332
:10A6C00003229B05290009A80EF04CFB0123059AE3
:10A6D000ED189370049B013304930C2BBAD16420C2
:10A6E00010F02CFC0B2D00DC5BE709A80EF026FB1C
:10A6F000012201000CA802F003FF002509A80EF0BA
:10A700001DFBA8423CDD2900002209A80EF018FB21
:10A710000022061C290009A80EF012FB011C301CA7
:10A7200007F090FC2900061C012209A80EF008FB86
:10A730000122071C290009A80EF002FB011C381C8D
:10A7400007F080FC311C07F00BF92900061C0222DF
:10A7500009A80EF0F5FA02222900071C09A80EF03C
:10A76000EFFA011C381C07F06DFC311C07F0F8F8FB
:10A770002900031C00220CA80EF0F4FA0135BDE7F5
:10A7800009AA1100012318A80EF006FB18A90FA8AA
:10A790000EF05FFB18A80EF0F6FA0CAA09A912A891
:10A7A00001230EF0F9FA002312AA0FA915A80EF042
:10A7B000F3FA002215A811000EF0C2FA0022061CBE
:10A7C000012115A80EF0BCFA0022051C022115A8D3
:10A7D0000EF0B6FAFC21071C8905301C07F032FC8C
:10A7E00007F026FFFC21060018908905281C07F0B9
:10A7F00029FC07F01DFFFC21050019908905381C74
:10A8000007F020FC07F014FF2A00030031001A9023
:10A810002068FFF715FEA0680DF02FFC07A908A817
:10A82000A5680FF0D3F80022194B009208A90193F4
:10A830002800130000F0BAFA08A80FF0BAF8FA20BE
:10A84000800010F07BFBA0680DF017FC15A80EF03F
:10A850009AFA12A80EF097FA0FA80EF094FA0CA824
:10A860000EF091FA07A80FF0A4F806A80FF0A1F8CF
:10A8700009A80EF088FA25B0F0BC08BC02B0184751
:10A8800016D102003AD102007FD10200E0FCFFFFA6
:10A89000DC050000F7B583601D4B05001F680160F3
:10A8A0004260002F31D02820FEF794FF04001030C2
:10A8B0000DF003F8174B18202360FEF78BFF0022E2
:10A8C0000600154B01920560083200210C30009300
:10A8D00010F089FC08226946301D10F068FC0F4B0F
:10A8E00000227361C223A3803B68E260A6602262FB
:10A8F00062625B68210038009847002805D020007C
:10A900000CF000FF2000FEF785FF2800FEBDC046CA
:10A91000F42600200500060031A50100537D020049
:10A92000F0B5040085B0637A9C46002B04D120006A
:10A930000DF03AFA05B0F0BDA37A266F019310230B
:10A94000019AF35600259B1801229A402900F368CA
:10A9500003920293029BAB4231DDB368019A6B43D1
:10A960009B1872695B00E77AD3181A785878E379F4
:10A97000012F14D15F1E3F1A10003A005B004343C1
:10A98000606F8218D3189B79634500DD6346627B54
:10A990001A4202D00123AB4019430135DAE7022FF6
:10A9A00005D15F1EBA1A277A013F381AE6E7032F4E
:10A9B000E4D1277A013FBF1A02003800DEE71123F5
:10A9C000C943F356606C994023691940039B1943AE
:10A9D00010F074FBA27B072AACD8637B0C495B00A8
:10A9E0006373531CDBB290004158A373022A03D84F
:10A9F000080010F098FA96E7064B20002363002326
:10AA00006363054BE4622364143010F02AF991E784
:10AA100010C3020021A90100937D020010B50400BB
:10AA2000044B036010F015F9200005F04BFF2000E7
:10AA300010BDC0469CC7020010B504000E4B083381
:10AA40000360FEF7C5FF200074300EF0B2FF200057
:10AA500060300EF0AEFF200058300CF09DFE20005C
:10AA600050300CF099FE2000044B14306361FFF766
:10AA7000D5FF200010BDC04630C30200B0C70200A1
:10AA8000F8B500250400324B8580083303608571DA
:10AA9000143016000F0005F0FFFE20002D4BE5627C
:10AAA000636125645030FEF7DBFF20005830FEF76D
:10AAB000D7FF2000603002F05DFD20000423F25E2D
:10AAC00033682667590009B274300EF090FF33687E
:10AAD000226FE37173680126237210236581A780BA
:10AAE0002561D35691685918994204DD3000984089
:10AAF00001330543F8E711230120D356D1685918D3
:10AB0000994206DD02009A402669013332432261F0
:10AB1000F6E71420FEF75EFE226900212A43012396
:10AB2000060006F057F9FF23220063720133A38168
:10AB3000002348326664A37320001370A366FEF7F7
:10AB400029FF0123A27920001343A371F8BDC04659
:10AB500030C30200B0C70200F0B5437A85B00400EC
:10AB6000002B04D120000DF01FF905B0F0BD01222B
:10AB7000837A11009C461023066F0025F35603923A
:10AB80006344994002912900F3680193019BAB4211
:10AB90002CDDB36872696B4363445B00E77AD318BA
:10ABA0001A785878E379012F10D15F1E3F1A1000F0
:10ABB0003A005B004343606F8218D3189B79002BE7
:10ABC00002D0039BAB4019430135DFE7022F05D1CB
:10ABD0005F1EBA1A277A013F381AEAE7032FE8D135
:10ABE000277A013FBF1A02003800E2E71123C94368
:10ABF000F356606C994023691940029B194310F089
:10AC00005DFA667AB31EDBB2FC2B14D8FEF770FE39
:10AC10000B4B0500236300230A4863630A4BFF21A3
:10AC2000E4622364704306F07BFC2900414320006A
:10AC3000143010F016F8637A012B00D995E791E7EC
:10AC4000A97D0200B6030000937D02001FB5012319
:10AC500081881A0068460CF03AFE012303491A0065
:10AC600068460CF034FE05B000BDC046FE0300008F
:10AC70001FB5030048331A780400002A0DD00022C3
:10AC80001A70012381881A0068460CF020FE012307
:10AC900004491A0068460CF01AFE200074300EF0C9
:10ACA0009DFE1FBDFF03000010B548300378002B48
:10ACB00006D00378012B03D0012102480CF098FC48
:10ACC00010BDC046FF03000010B50121040006209E
:10ACD0000CF08EFC064B984208D148342378002BA8
:10ACE00004D02378012B01D020BFF7E710BDC04668
:10ACF00016FCFFFF70B50600141E19DB0500483571
:10AD00002B78002B02D02B78012B13D1002330009D
:10AD10001A00743002F0F0FC002C07D033004A33E4
:10AD20001C80002407234C3634802B70200070BD1B
:10AD3000014CFBE7014CF9E717FCFFFF12FCFFFF9A
:10AD4000F8B517000A68050052880B00012A09D1DE
:10AD5000002118000CF0A4FD002201002800FFF7DC
:10AD6000C9FFF8BD002F19DD060048363278002AE9
:10AD700002D03278012A13D12A00002428005C3244
:10AD80001900148058300CF066FD2B004A331F80E8
:10AD900003234C352C8020003370E2E70148E0E7C4
:10ADA0000148DEE717FCFFFF12FCFFFF73B5079CAD
:10ADB0000500002C1CDB060048363078002802D045
:10ADC0003078012816D106981BB2C0B20090280036
:10ADD00012B274300EF012FE002C07D02B004A3352
:10ADE0001C80002407234C352C803370200076BD56
:10ADF000014CFBE7014CF9E717FCFFFF12FCFFFFDA
:10AE0000F7B505000E00171E26DDFFF74DFF2B00DE
:10AE100048331C78E4B2002C20D133685B88012BC6
:10AE200009D1210030000CF03BFD22000100280078
:10AE3000FFF760FFFEBD310001A80CF004FD3A00F1
:10AE400001A92800FFF77CFF01A80CF0A5FC280051
:10AE5000FFF73AFF2000EDE70148EBE70148E9E79B
:10AE600017FCFFFF11FCFFFFF0B587B00D9C06003B
:10AE70000F0002920393002C20DBFFF715FF330035
:10AE800048331D78EDB2002D1AD1390005A80EF017
:10AE90009DFD0C9B01940093029A039B05A9300031
:10AEA000FFF784FF05A80EF084FD002C03D03000CE
:10AEB000FFF70AFF2C00200007B0F0BD014CFAE7B5
:10AEC000014CF8E717FCFFFF11FCFFFFF8B5040089
:10AED000171E1DDD060048363378002B02D033786C
:10AEE000012B17D12200E3795632013B1370230066
:10AEF0000025200054331D8050300CF0ACFC2300A2
:10AF00004A331F80022328004C3425803370F8BD5B
:10AF10000148FCE70148FAE717FCFFFF12FCFFFFBE
:10AF2000F7B505000F00161E18DDFFF7BDFE2B005C
:10AF300048331C78E4B2002C12D1390001A80CF07F
:10AF400082FC320001A92800FFF7C0FF01A80CF025
:10AF500023FC2800FFF7B8FE2000FEBD0148FCE7F7
:10AF60000148FAE717FCFFFF11FCFFFFFF2902D899
:10AF70004172002070470148FCE7C04617FCFFFF04
:10AF8000F0B51F0085B00AAB1B7804000393009353
:10AF90003B000D0016000FF0C5FD002833D0237DC7
:10AFA000082B2DD8236800221900FC318A62A021C9
:10AFB000C9005A50154905205A500138C046C046AC
:10AFC000C046C046C046C046C046C046C046C04651
:10AFD000C046C046F1D1236801325A50A021043244
:10AFE000C9005A5006F0A6F8039B320000932900CE
:10AFF0003B0020000FF096FD237D01332375CCE745
:10B00000034805B0F0BD2075FBE7C046FC0F00000B
:10B010000EFCFFFFF0B51F0085B00AAB1B780400E3
:10B02000039300933B000D0016000FF063FD002812
:10B0300033D0237D082B2DD8236800221900FC3142
:10B040008A62A021C9005A50154905205A5001387A
:10B05000C046C046C046C046C046C046C046C046C0
:10B06000C046C046C046C046F1D1236801325A509E
:10B07000A0210432C9005A5006F05CF8039B32004C
:10B08000009329003B0020000FF034FD237D0133A5
:10B090002375CCE7034805B0F0BD2075FBE7C0463B
:10B0A000FC0F00000EFCFFFFF8B50D1E30D000268F
:10B0B0000227C468002C28D0AA88A38853403B42AA
:10B0C00004D13A4204D1AB883B4219D0646AF1E71B
:10B0D000A968A0680DF021FE0028F4D02B88002B71
:10B0E00002D022889A42F1D16B88002B02D062886C
:10B0F0009A42EBD1A288074B01361343A380E5E7C0
:10B10000A368AA689342E1D1E8E72000002E00DCA2
:10B110000148F8BD0080FFFF17FCFFFFF0B50600F7
:10B1200085B00D1E59D00127C468002C22D0022101
:10B13000AA8800230A4202D0A3885B083B40226809
:10B1400029688A4210D1A068A968002B0AD00DF0A6
:10B15000E4FD002808D0A3881AB2002A06DB2048A4
:10B1600005B0F0BD8842F6D0646ADEE75B045B0C94
:10B17000A380F4E7F0682A88002807D1F56001234E
:10B18000184968460CF0A3FB0020E9E70100030022
:10B190001C88944206D25C6A1900002C0DD0230052
:10B1A000F6E723001C88944207D15F886C88A74289
:10B1B00003D25C6A1900002CF3D1814209D10B88BB
:10B1C0009A4204D305D148886B88984201D96962B4
:10B1D000D4E74B6A6B624D62D1E70348C0E7C046D3
:10B1E00016FCFFFFFD03000017FCFFFF064B10B528
:10B1F0001A00040008322C33026043600430FEF76A
:10B200001DF9200010BDC04648C3020008B4024B1F
:10B210009C46043808BC6047EDB1010008B4024BFD
:10B220009C46043808BC6047BB8102000C4A0023DE
:10B2300011002C32083110B5038183724260C36063
:10B24000036143614383016004000430FEF7E8F8C2
:10B25000044B1A68002A00D11C60200010BDC046B3
:10B2600048C30200F4260020F7B50E000125C4688B
:10B270000192002C36D0238832889A4201D0002BCC
:10B2800023D1638872889A4201D0002B1DD1FEF72A
:10B290003BF80123002806D0C022A3881340C03BFE
:10B2A0005A425341DBB2019A934219D1A7883BB26B
:10B2B000002B15DB10223100A0180FF078FF40237F
:10B2C0001F4204D020000CF081FF646AD1E7FEF732
:10B2D0001BF80028F6D021000348FEF7C5F9F4E773
:10B2E0000025F2E72800FEBDCD81020008B4024B24
:10B2F0009C46043808BC604755830200F0B587B00F
:10B3000001930EAB1B88060003930D9B0D00009369
:10B31000019B02920C9F002B3DD0002F02D1009B7D
:10B32000DB0738D52820FEF755FA040010300CF062
:10B33000C4FA6B461B89258063801820FEF74AFA01
:10B340000500009B08220593019B002103600C303F
:10B3500004970FF048FF082204A9281D0FF027FFCB
:10B360000E4B02226B6100230399E3602362636248
:10B3700033680A43A560A2805B68210030009847CB
:10B38000002806D020000CF0BDF92000FEF742FA9C
:10B39000034807B0F0BD0348FBE7C0468F830200B7
:10B3A00016FCFFFF17FCFFFFF0B504001600002598
:10B3B0008380164A164B8571026021814681057390
:10B3C000186889B08C46A8421DD0124A059504928F
:10B3D000C02202926A4604AB82CB82C223002A00BA
:10B3E0006146FFF78BFFC022094B0A491868029299
:10B3F0006A46069106AB079582CB82C223002A00DB
:10B400003100FFF77BFF200009B0F0BD8CC30200C4
:10B41000F4260020B984020030B500240373012310
:10B42000034D84710560818082734373846030BDF5
:10B43000A4C3020070B5040000250C4B0E000833B5
:10B44000858085710360210018300DF0EDF8200033
:10B45000210020300DF01BF9054BA680E5802572F8
:10B46000E5602561656120001C6070BDB4C3020009
:10B47000FC260020072906D80020044B044A595610
:10B48000044BD15070470448FCE7C04695D10200F8
:10B49000001000400C05000017FCFFFF10B50C0069
:10B4A0000CF034F8002806D1642C06D8A123044AF5
:10B4B000DB00D45010BD0348FCE70348FAE7C04660
:10B4C0000010004016FCFFFF17FCFFFF8379DB072D
:10B4D00002D5C160002070470048FCE716FCFFFF62
:10B4E0008379DB0701D5C06870470148FCE7C04697
:10B4F00016FCFFFF70B545690400002D22D0037AC9
:10B50000032B21D8FFF7ECFFA8622C20FEF762F98D
:10B510002C22002105000FF066FE002263695A62AA
:10B520002369934208D1636923610020237A65610E
:10B530000133237270BD13005A6A002AFBD162697D
:10B540005A62F2E70148F5E70148F3E717FCFFFF0D
:10B5500013FCFFFF144B70B55A68144C002A03D03B
:10B5600000225A600132A2601A69002A17D0002115
:10B5700019618023DB000E4DE3582868012B0FD1A1
:10B58000A923DB00E1584942FFF7A0FF2868FFF735
:10B59000B1FF2B685A69074BE2500123A36070BDCD
:10B5A000FFF794FFF9E7C046FC1000400010004090
:10B5B000FC2600200405000010B504000BF0A6FFD7
:10B5C000002818D10122A1790300114211D00221D3
:10B5D0000A4BD9670A4B0B4958610A615A69002A1C
:10B5E000FCD02000FDF72AFF0122A3799343A37129
:10B5F0000023180010BD044BFBE7C04604E100E047
:10B60000FC1000400010004016FCFFFF70B5050064
:10B610000C000BF07BFF002804D1034A034BEC71B4
:10B62000D45070BD0248FCE7001000402405000023
:10B6300016FCFFFFF8B5837905000020DB076AD40C
:10B640000BF064FF002867D16E69002E08D12C3002
:10B65000FEF7C0F804002C2231000FF0C4FD6C612D
:10B660006B69002B5AD000222D4B01215A60802299
:10B67000D20511605A68002AFCD00622294B2A4CB8
:10B680009A562A4B0721E2502800FFF707FFA22312
:10B690000026DB00E650264A264B2800E250E979D6
:10B6A000FFF7B4FF01220821234B2448E65004335E
:10B6B000E250234B234FE1500433E0500223224851
:10B6C000235022482750224F04382750182721485A
:10B6D00027506F6920482750C120800021501F4902
:10B6E0008538FF380B500B608021890060580E337D
:10B6F000034363501A4B5E6062605A68002AFCD0B4
:10B70000002601271E612800A760FDF789FE300092
:10B71000AB791F43AF71F8BD1248FCE71248FAE756
:10B72000FC00004095D10200001000400C05000014
:10B73000746962751C0500002C05000020000402DD
:10B7400014050000FFFF0000340500003C05000068
:10B7500021100100540500000405000000E100E094
:10B76000FC10004016FCFFFF13FCFFFF0300006904
:10B77000002809D00221054AD167426A1A611A7A63
:10B78000013A1A72024B19607047C04604E100E0AA
:10B7900000E100E070B504000D000BF0B7FE0028DA
:10B7A0003AD1002D3AD02B78232B37D802221C4BCC
:10B7B0001C49DA671C4B013A58610A615A69002A30
:10B7C000FCD00020194A8D5058600130086058683C
:10B7D0000028FCD00120886000201861186900282A
:10B7E000FCD06069885000225A6101320A615A69AE
:10B7F000002AFCD000225A6001324A605A68002AAE
:10B80000FCD00020186101238B60C0210222084B6C
:10B8100049005A501A6070BD0648FCE70648FAE72E
:10B8200004E100E000100040FC10004004050000AE
:10B8300000E100E016FCFFFF17FCFFFF37B54C6886
:10B840000500002C04D10C490CF06BF828003EBD1B
:10B85000636A01A84B602278211D033AA36A0CF0A9
:10B860008CF82000FDF7D6FF01A928000CF059F84C
:10B8700001A80CF04FF8E9E7F826002030B50500E4
:10B880008DB0002912D0232A10D801ACD31C00207F
:10B8900023700123A07002A86370E3700FF087FC8F
:10B8A00021002868FFF776FF0DB030BD0048FBE7A8
:10B8B00017FCFFFFF0B5224B85B01B7804005B0737
:10B8C00039D50FF077F90025236CC6B20227DF5F68
:10B8D000AF420EDD200029B240300BF0E1FF86427E
:10B8E00005D1012320211A0068460BF0F0FF013535
:10B8F000EEE7250023004E3528884C3319780130B7
:10B9000005F0F4FE230050331B8889B28B4214D01B
:10B910002B88A26CD654636C2980002B0BDB2A8801
:10B92000934208D1012302225B4263640233202147
:10B9300068460BF0CCFF05B0F0BD01230322F6E70B
:10B94000F62900200121024A13788B4313707047B7
:10B95000F62900200223024A11780B431370704726
:10B96000F62900200221024A13788B431370704796
:10B97000F629002010B5002903DB024B19600FF0F7
:10B980003EF910BD0027002070B504001E0004AB76
:10B990001D7804F04BFF20000E4B40302360FEF773
:10B9A0005FF8230001364C33013522001E701D73F1
:10B9B0000023E1214E32A364636513805380938199
:10B9C000D381013B200063644902FFF7D3FF2000CD
:10B9D00070BDC046F0C1020070B51500012A0BD041
:10B9E00040300BF038FF0024022D03D1012120202C
:10B9F0000BF0FEFD200070BD004CFBE717FCFFFFC5
:10BA000010B5094A012311780C001C400AD10B43E0
:10BA1000137003004E331B8850300380FFF792FFF2
:10BA2000200010BD0148FCE7F62900200DFCFFFFB7
:10BA3000F0B5050007005C355A372B883A8885B089
:10BA400004009A421ED0104B1B781B071AD52B8876
:10BA5000426DD15C0FF0B2F8230028885833197872
:10BA6000013005F043FE3B888EB2B34209D107494D
:10BA70000123022268460BF02AFF012120000CF06E
:10BA80005BFE2E8005B0F0BDF6290020FF0300000C
:10BA900070B5114D04002B781B0705D501210CF062
:10BAA0004BFE606DFDF7B6FE08262B78B3432B7076
:10BAB000230058331878FDF78DFE6065002809D003
:10BAC000230000205A3318802B785C341E432080DA
:10BAD0002E7070BD0148FCE7F629002013FCFFFF23
:10BAE00070B50B4B04001B780D009B070ED4FFF7BD
:10BAF00031FF2300013558331D702000FFF7C8FFC8
:10BB000005002000FFF72EFF280070BD014DFBE768
:10BB1000F62900200DFCFFFF73B50D0006A90400F7
:10BB200009780430002A01D1DE070ED5002D0CD093
:10BB300018264E430C34A41962600122A360044B02
:10BB40002560636105F048FA73BD0022FAE7C0463C
:10BB5000B9860200F0B58BB005930300070004001E
:10BB60000025583306930433039104925A37079300
:10BB7000049B9D4211DA069B3E881978701C05F0E3
:10BB8000B5FD079B89B21B888B4206D0039B626D73
:10BB90005B5D013593553980EAE7059B012B03D0A6
:10BBA00002210748FDF7FEFC012320000093054A0F
:10BBB00000232100FFF7B0FF28000BB0F0BDC04606
:10BBC000FF03000031BA0100F7B5184C1F002378BD
:10BBD0000500019116009B0724D4002A24DD0029CA
:10BBE00022D0FFF7B7FE23781B0714D50024019B52
:10BBF000321B191928003B00FFF7ACFF390024184D
:10BC000028000CF089FD002F01D0A642EFDC2800AF
:10BC1000FFF7A8FE04E02800FFF73AFF041EE5D076
:10BC20002000FEBD024CFBE7024CF9E7F62900209C
:10BC30000DFCFFFF17FCFFFFF0B5164E85B0337803
:10BC400005005B0705D500210CF076FDA86CFDF71B
:10BC5000E1FD04273378BB4333702B004C33187855
:10BC6000FDF7B8FDA864002811D02B0000244E3346
:10BC70001C805C80337828001F433770064A00948C
:10BC800023002900FFF748FF200005B0F0BD03485E
:10BC9000FBE7C046F6290020B5B8010013FCFFFF02
:10BCA000F0B56E4D8BB002AF7B602B78B8600C00A6
:10BCB0001600DA0702D5FDF7D3FE09E05B070BD4C7
:10BCC0000800FFF7B9FF011E06D0B8680BF081FD30
:10BCD000BD46B86809B0F0BD01232A7813432B7024
:10BCE000230050331B883B61FB6001235B427B6177
:10BCF00023004E333B601D88FB68ADB29D4217D0D8
:10BD00007B69013369D10025A36CFA689B5C3B60B9
:10BD1000336802229B5EAB422CDD29B230000BF06F
:10BD2000BFFD3B68984201D1FB687B610135EFE7BD
:10BD30007B68012B2FD17B6901334ED122004E321B
:10BD40001388AB42FCD0A36C5B5D7B600023FB607F
:10BD5000336802229B5EFA68934214DD0C23F95E7D
:10BD600030000BF09DFD7B68984200D17D61FB683F
:10BD70000133ECE72300F8684C331978013005F003
:10BD8000B5FCF960B4E723004C33681C197805F062
:10BD9000ADFC0D00CFE77B68022B1ED17B69013320
:10BDA0001BD11C25310078190BF04DFD7A687919EB
:10BDB0002000FFF711FE78190BF0EEFC3B687819B4
:10BDC0001B88013B7B61FDF74BFE20007919403059
:10BDD0000BF041FD78190BF0DFFC7B69002B38DBA1
:10BDE0006B467B6023004C331E783A697B699D1A51
:10BDF000934202DA7B69B51AED182B0069460833C5
:10BE0000DB08DB00CB1A9D4602AB6A1C0021180040
:10BE1000FB600FF0E8F932002600BB8A2000019396
:10BE20003B6950360093FB68A16C0CF050FC3088E5
:10BE30004C3401302178401905F058FC3180FFF76F
:10BE400081FD2AB2F968B868FDF7E0FD7B689D4680
:10BE50003EE7FFF777FDB8682DE7C046F6290020DA
:10BE6000012310B5094A14781C420CD123431370E6
:10BE7000030001314C331970FFF7DEFE0400FFF7B9
:10BE800061FD200010BD024CFBE7C046F6290020F2
:10BE90000DFCFFFFF7B580277F053D697C6908220F
:10BEA000113C6C430600210068460FF080F9104BEE
:10BEB000009A9A4219D000930023019379693000C7
:10BEC000133969430CF047FC019A009930000CF0DB
:10BED0005AFC210030000CF03EFC7969AB081339A4
:10BEE0006943220030000CF040FC0198FEBDC046C2
:10BEF000FECA0000F0B50D00A9B00D92002130225D
:10BF0000060010A80B930FF06EF928000FF0ABF9A4
:10BF1000431C0C93102B00D9B5E00B9B202B00D9B0
:10BF2000B1E0290030000CF05BFC071E50D1290065
:10BF30000C9A10A80FF03BF90D990B9A14A80FF06A
:10BF400036F980235B051A695F690C92113F7A43C9
:10BF500030005D690B92FFF79DFF30220021040045
:10BF60001CA80FF040F9290000270C9B13395943F6
:10BF700030000CF0F0FB0D9730257D430B9B083310
:10BF8000ED18A74242DA290030221CA80FF00FF961
:10BF900010A91CA80FF05DF9002827D13C493000FA
:10BFA00022000E910F940CF0EEFB6A46099513AB3C
:10BFB00023CB23C223CB23C223CB23C23000129B2B
:10BFC0001099119A0CF0EDFB01230D930137D3E783
:10BFD00010300B9A0D990FF0DBF804003800FDF7D4
:10BFE00019FC002CA3D1200029B0F0BD6A460995A8
:10BFF0001FAB23CB23C223CB23C223CB23C23000CE
:10C000001C991D9A1E9B0CF0CCFBDFE7E543302307
:10C01000ED1725405D430B9B08355D190D9B002BEB
:10C020001DD10C9B3021981E05F0F0F9A0422CD0B8
:10C0300017490134300022000E910F940CF0A3FB3D
:10C040006A46099513AB23CB23C223CB23C223CB50
:10C0500023C230001099119A129B0CF0A2FB0B998D
:10C0600030000CF078FB80235B0559690C230C9A97
:10C07000133963434A430233110030000B9A0CF02A
:10C0800074FB0024AFE7034CADE7034CABE7C046BD
:10C09000FECA000017FCFFFF13FCFFFF70B5040091
:10C0A000A280FA22002308000C4992000831216086
:10C0B000A3716061E260A360638209490CF090FBA8
:10C0C000051E09D0010020001031022212300FF0AD
:10C0D0006EF82800FDF79EFB200070BDCCC3020067
:10C0E0008DD1020030B50225837987B004002B4240
:10C0F00004D1FDF795F9A3791D43A57120000CF03B
:10C10000B9FB00281CD06B46DD1C28000CF0A9FBF5
:10C110002B78002B17D001A80CF0A1FB0321019A6A
:10C12000D3170B409B189B102382FDF71BFCE36881
:10C13000A18818180123A0601A0002A80BF0C7FB01
:10C14000002007B030BD0122064B1A60064A516834
:10C150000029FCD000215160044A1268019201229A
:10C160005A60DBE700C00040FCC0004008C500404A
:10C17000022802D10122014B1A707047F7290020D2
:10C1800070B5064C05002378002B04D1044801F05B
:10C1900083FC01232370280070BDC046F8290020CD
:10C1A00071C1010070B50C000BF0B0F9002810D07F
:10C1B0000023144DA40A2B7020000CF06FFB002804
:10C1C00003D00A200EF0BAFEF6E72B78002BFCD045
:10C1D00070BD02210C4B0D4A99508021C900080006
:10C1E0005D58002DFCD0A121C9005C5019580029D0
:10C1F000FCD0002199508021C9005A58002AFCD057
:10C20000E6E7C046F729002000E0014004050000F1
:10C21000F8B50C0015001E000BF078F9002811D0BD
:10C220000023174F3B703200290020000CF034FB34
:10C23000002803D00A200EF081FEF4E73B78002BA3
:10C24000FCD0F8BD01210F480F4B844619508021C6
:10C25000C9005A58002AFCD080270022FF009642CD
:10C2600007DD910068586050D9590029FCD001328F
:10C27000F5E7002261465A50DA59002AFCD0E0E77F
:10C28000F72900200405000000E0014010B504007B
:10C29000054B083303601C300BF07EFA2000183089
:10C2A0000BF07AFA200010BDE4C30200FF23F0B5C2
:10C2B0002C4D8DB02B70002304006946008800933C
:10C2C00003F05CFB002802D16B469B782B70264E56
:10C2D0003368DB68002B07D1002320881A0019007F
:10C2E0000CF0E0FA0DB0F0BD2B78032BF4D81F4909
:10C2F00001A8FDF77BFB336801A9DE6804A80BF0F9
:10C30000A2FA04A930000CF09EFA0027060004A847
:10C310000BF042FABE421ED031002022103104A898
:10C320000EF045FF3000FDF775FA297804ABC9001F
:10C330005918082202A80EF03AFF2088012308228B
:10C3400002A90CF0AFFA0137002804D12088084A6E
:10C350000C210CF0A5FA01A80BF01EFA002FBBD09F
:10C36000C0E7C046F0210020102700209DD1020028
:10C37000FFFF0000F0B5837991B004005B071BD587
:10C38000FDF7F0FA00232269801A9941994203D1FE
:10C39000F423FF3398420FD9A068002808D0364B09
:10C3A0001D880DF0CAFB036815221B6A29009847F7
:10C3B0000422A3799343A371A3799B0759D52F4DE9
:10C3C0002B68DB68002B50D02D4B1B78032B4CD8EF
:10C3D000294B2C491B8804A80193FDF707FB2B6808
:10C3E00004A9DE6808A80BF02EFA08A930000CF0AA
:10C3F0002AFA070008A80BF0CFF902AB9E1D08230C
:10C400003200338006A9073B01980CF04DFA002F4B
:10C4100008D039002022103108A80EF0C8FE3800DC
:10C42000FDF7F8F9164B32881B7806A9DE0008AB39
:10C430009E1930000EF0ACFE002813D0082206A989
:10C4400030000EF0B4FE2B6804A9DD6805A80BF0DF
:10C45000FAF9202308AA05A928000CF0FAF905A882
:10C460000BF09AF904A80BF097F90222A3799343F1
:10C47000A37111B0F0BDC0469C29002010270020F8
:10C48000F02100209DD10200F7B5089E0500152976
:10C4900022D8012007008F40244C27421CD0E97F7E
:10C4A000CC181F2C41DC69183418A14210D8002187
:10C4B000C8B2834204D9545C701884700131F7E724
:10C4C00032789A183270EA7F9B18EB7700202CE0C4
:10C4D0000878C8540139E8E73478013CE4B2A34253
:10C4E00008D10023D9B28C42F0D9D05CF118887001
:10C4F0000133F7E7EF7F0120FF183F1B1F2F14DCEC
:10C500000227A01C7F423618381B0190E87F2F18A5
:10C51000BE4204D23078019FF0550136F6E7041B85
:10C52000023CEC7728000CF009FAFEBDFC0020006C
:10C53000F0B585B001930AAB1E880BAB1B78451C88
:10C5400002930EAB1B78040003930B781700037063
:10C550004B8A10224382013128000EF028FE6B46E0
:10C560009B88268363836B461B7B002623776B4661
:10C5700001221B7A6761E683EB77A31CDA770C9BB9
:10C580000C256362230020000D9A28331A705E7018
:10C590009E702A0031002C300EF025FE2000074B43
:10C5A000E663A3632A00310040300EF01CFE200039
:10C5B000034B2665E36405B0F0BDC046BF880200AA
:10C5C000B188020070B50D000DF0B7FA04000368E1
:10C5D000002D09D15B699847FA208000684307491C
:10C5E00004F014FFE08070BD9B6898478542F3D249
:10C5F000236820009B6898470500EDE77102000062
:10C60000F0B507001600A1B002C704006B4918A8D6
:10C610001D000CF0DAF9331E03D030000EF023FEBB
:10C6200083B201220492002203920292023201920A
:10C630000093320018A93800FFF77AFF2300604901
:10C64000583318A807930CF0C0F92B1E03D028000C
:10C650000EF009FE83B2012204920022039202929C
:10C660000232019200932A0018A90798FFF760FF91
:10C6700023005449AC3318A808930CF0A6F9269B64
:10C68000002B03D018000EF0EEFD83B201220492BD
:10C69000002203920292023201920093269A18A974
:10C6A0000898FFF745FF631CFF33474918A8099313
:10C6B0000CF08BF9279B002B03D018000EF0D3FD54
:10C6C00083B2012204920022601C03920292023281
:10C6D00001920093279A18A9FF30FFF729FF230042
:10C6E0005533FF33394918A809930CF06EF9289B8C
:10C6F000002B03D018000EF0B6FD83B20122049285
:10C70000002203920292023201920093289A18A901
:10C710000998FFF70DFF2300A933FF332C4918A810
:10C720000A930CF052F9299B002B03D018000EF04D
:10C730009AFD83B201220492002218AD0392029264
:10C74000023201920093299A29000A98FFF7F0FE1D
:10C75000204B1B780B93002B2DD1079B1297139323
:10C76000089B0DAF1493631CFF331593099B1A4963
:10C7700016930A9B380017930CF027F91D214920C6
:10C780003B7810222B707B8A12AE6B8206ABC918E5
:10C79000C0180EF00CFD06232B756B469B8D206890
:10C7A000AB83AE610DF0CDF9036829001B68984793
:10C7B0000122084B1A70200021B0F0BD292A000088
:10C7C000242A0000252A0000272A0000262A00002B
:10C7D000282A0000F92900200A18000070B5002559
:10C7E00004000A4B8580083385710360C1601830EE
:10C7F000FDF736F920001C30FDF732F9044BA56037
:10C800001C60012365612000A37170BDE4C30200B8
:10C8100010270020FA2130B585B00500012302223F
:10C82000890068460BF053F8074C2068002809D0AF
:10C830000CF004F92988054B2268198002239179AC
:10C840000B43937105B030BD102700209C290020B8
:10C8500010B50C0007290DD880680DF06EF9064B55
:10C86000195703685B6C9847431E9841034B40423D
:10C87000184010BD0248FCE795D1020016FCFFFFEE
:10C8800017FCFFFFF0B5A44C0D00A544040007936E
:10C890009AAB1B78A14909A804930692FDF7A6F864
:10C8A000200029001C300AF0D6FFC020800001F0D3
:10C8B000E9F80820FCF78EFF0600002100F0D0FF09
:10C8C00015ADA66000210C220EA80EF08CFC2B00EA
:10C8D0000EAA83CA83C3924B2900EB600023300069
:10C8E0002B610DF013F9A0680DF027F90822002143
:10C8F000059016A80EF077FC1420FCF76BFF2900BA
:10C900000200884B1593C8C9C8C2874B059EC360F7
:10C910000023A43603613368002B00D0F5E03060BB
:10C92000A0680DF00EF908220021060016A80EF0EE
:10C930005AFC1420FCF74EFF7C4B1593030086CD68
:10C9400086C37B4BC36000230361336B002B00D095
:10C95000DDE03063A0680DF0F0F80822002105004A
:10C9600016A80EF040FC1420FCF734FF714B15AEF6
:10C970001593030086CE86C36F4B9835C3600023A2
:10C9800003612B68002B00D0C3E02860012504ABB5
:10C990001B7C04AA2B4308A9280013740BF086FF04
:10C9A000A0680DF0D2F8036864495B6A9847A068F4
:10C9B0000DF0CBF8036862499B699847A0680DF0B9
:10C9C000C4F8002302680093166804992A00B0474F
:10C9D000049B002B0AD020000CF039F8032805DD59
:10C9E000A0680DF0B2F80368DB6898470EA80BF05A
:10C9F0009CFF2F2004ABC0180BF097FF362004AB30
:10CA0000C0180BF092FF3D20042504ABC0180BF0BA
:10CA10008CFF0EAB0A93A06804AB5D770DF095F820
:10CA200003680AA91B699847A0680DF086F8036897
:10CA30000AA95B6D9847A0680DF07FF80368002194
:10CA4000DB6D9847A0680DF078F8036802219B6DB4
:10CA5000984700212000FFF7FBFE1820FCF7BAFEE4
:10CA6000A16800F005FA374B374A1B68A1680393A9
:10CA7000364B15A81B6800260293354B0CAF1B687C
:10CA80000193069B1B685B190093324B12681B686D
:10CA9000FFF7B6FD3020FCF79DFE079AA16800F075
:10CAA000A7FAA0680DF049F8036839009B6A984717
:10CAB000294BBE80A0680C930DF03FF80368390045
:10CAC000DB6A98472900A0680BF08BFF099A0921BF
:10CAD0009378A06852190BF097FFA0680DF02DF81D
:10CAE000C8210671A068FFF76DFD04AB1B7FB34240
:10CAF00004D0A0680DF021F80BF05DFF09A80AF042
:10CB00004BFE95239B009D44F0BD036107E7036145
:10CB10001FE7036139E7C046ACFDFFFF90D202007A
:10CB2000CD88020015C80100DB880200ADC20100FB
:10CB3000E988020017890200F78802005DCB010036
:10CB400091CB01000C27002008270020082000209E
:10CB5000042700200C2000200800100013B5062236
:10CB60006846FCF753FF094B1C68002C0AD0694645
:10CB700001A80AF068FE200001A90BF089FF01A8B6
:10CB80000AF00AFE68460AF007FE13BD10270020CF
:10CB9000002373B501AE0C0031000500019302F0D3
:10CBA000EDFE002802D1B278064B1A70064B1868C9
:10CBB000002806D061426141044BC9B21D800BF0D0
:10CBC0006FFF73BDF0210020102700209C2900205A
:10CBD000F0B5040097B0039107A89C490592FCF7B3
:10CBE00005FF9B4908A8FCF701FF22000FAD2800B4
:10CBF0001C3207A90AF03EFE08AA290009A80AF07B
:10CC000039FE28000AF0C8FD92490AA8FCF7EEFE9A
:10CC1000A0680CF092FF03680DAE5B69984728008E
:10CC20000BF083FE332004ABC0180BF07EFE3A20DD
:10CC300004ABC0180BF079FE412004ABC0180BF018
:10CC400074FE8023DB00B380A0680D950CF075FFA7
:10CC5000036831005B6D9847A0680CF06EFF0368B5
:10CC600000219B6D9847A0680CF067FF0700002526
:10CC700006000A371F22002138000EF0B4FAFD77B3
:10CC800030000BF08FFE0621A0680BF0AAFE099A77
:10CC900009219378A06804320BF0B6FEA0680CF06E
:10CCA0004CFFC8210571A068FFF78CFCA0680CF050
:10CCB00044FFFF272E000581A0680CF03EFF0BF01B
:10CCC0007AFE0398FDF7D4FF0AA90CA80AF0BBFD71
:10CCD00078220CA90398FEF723F90CA80AF05CFD52
:10CCE000039920000BF0EFFE2000FCF799FB049560
:10CCF000012563691D402DD057490BA800F0ACFCFD
:10CD00000BA90CA80CF062FE00220CA913000192E2
:10CD100000920398FEF7A8F80CA80CF04AFE049BBA
:10CD2000002B42D1043F282F41DD0025FE2F00DCDF
:10CD3000049D05980AF084FF002806D0012362694B
:10CD40009A43130004221343636100260BA80CF0DE
:10CD500030FE049504226369134233D0FF21039807
:10CD6000C826FEF703F90025B600A36902229B5EE0
:10CD7000AB4222DD200029B218300AF091FD0023D9
:10CD8000010003981A00743000F0B6FC3000FCF784
:10CD9000DFFB03980BF071F9C820FCF7D9FB0222E6
:10CDA0006369134209D10135DFE70437BBE7039814
:10CDB0000BF063F9002FBCDDBAE7FA208000FCF726
:10CDC000C7FB0026022365691D421CD006331D40A7
:10CDD00024D022490BA800F03FFC0BA90CA80CF0B2
:10CDE000F5FD00220CA90192009213000398FEF7B2
:10CDF0003BF80CA80CF0DDFD1948FCF7A9FB0BA8CB
:10CE00000CF0D7FD174E6420FCF7A2FB164B013641
:10CE10009E4200DC6CE70AF08BFB69E713490BA824
:10CE200000F01AFC0BA90CA80CF0D0FD2B002A0076
:10CE30000CA9019500950398FEF716F80CA80CF0C4
:10CE4000B8FD0BA80CF0B5FDDDE7C046A9D1020086
:10CE5000B9D10200BBD10200C9D102000ED202003A
:10CE6000983A00008C0A00008B0A00004BD20200A6
:10CE70000022594BF0B50833060003600F00100084
:10CE8000A9B0B1600BAB991801324870102AFAD1E1
:10CE90000F3A524C1A700E32105D991A0874013A0A
:10CEA000FAD2997B5A7B09020A4331000C31039173
:10CEB00025211B7813AD2B7002ABC918452302A89E
:10CEC0001B186A82180010220EF071F9039B64216E
:10CED0006B610123002402AA2B775218199309339E
:10CEE00013701DAB1C706D2302AA9B181C706E235F
:10CEF00021009B181EA80C22EC836C621C700EF0A3
:10CF000072F9374B0C22210023A8AB63EC630EF0BF
:10CF10006AF9344B02AAEB6446239B180322DA77A2
:10CF200022002C650595347306AD2B1901345A7017
:10CF3000102CFAD101232C482B700E33195CEA1AFD
:10CF40001174013BFAD211212520AA7B6B7B1202BE
:10CF50000BAC13432A78638202ABC9182270C01845
:10CF600010220EF024F90123237505ABA3610023E1
:10CF70003800A3830CF0E5FD036821001B68984787
:10CF800013ABDB8BB068B3820CF0DBFD00220368CF
:10CF90000092B18A039ADC680123A047B0680CF0C4
:10CFA000D0FD07001420FCF715FC0022012304002B
:10CFB0000261069240C00832290007930EF0F7F88C
:10CFC0000A4BE360BB69002B03D13000BC6129B080
:10CFD000F0BD2361F9E7C046FCC302009ED2020007
:10CFE000BF880200B1880200AED20200278B020087
:10CFF000F0B500260400734BDDB008330360816098
:10D00000C2608680867132006F4947A80BF02BFE04
:10D010002300143301250427089312230097049555
:10D020000193089A330047A9039602961DA8FFF7BB
:10D030007FFA3200654947A80BF015FE0820220050
:10D040000097330015AF10320495019047A903965D
:10D05000029632A8FFF76CFA32005D4938000BF0F7
:10D0600002FE2300082004221C33099339003300F8
:10D070000495019000920396099A029647A8FFF73B
:10D0800057FA3200534938000BF0EDFD5420FCF7FD
:10D09000A1FB050020000123122104221830079073
:10D0A0000493019100923900020033002800039696
:10D0B0000296FFF73DFA2800474BA5620822EC6272
:10D0C0000AA930300A930B960EF071F8434B0422F4
:10D0D000AB63012329352B7009992661E661079816
:10D0E0000EF065F80422079908980EF060F86621A2
:10D0F000032304AA8918CB77BA2104AA8918CB770D
:10D10000872104AA49008918A26ACB77911CA685B9
:10D11000CB771DAB0C9332AB0D930F9247AB320024
:10D120002F4910A80E930BF09EFD3021452004AB33
:10D130005B181B7812313B7004AB5B181B881139EC
:10D140007B8204ABC918C01810220EF030F80422FC
:10D150000CADA0683A75BD61BE830CF0F2FC0368AB
:10D1600039001B689847822204AB9B181B885432F5
:10D17000238404AB9B181B885432A38404AB9B18F4
:10D180001B88A06863840CF0DCFC07001420FCF70B
:10D1900021FB0500134B066108221093119610A97C
:10D1A00010C00EF004F8104BEB60BB69B34206D11F
:10D1B000BD612000FCF734F920005DB0F0BD2B61AB
:10D1C000F6E7C04608C40200DED20200BED202006A
:10D1D000CED20200EED20200398C0200A58B0200F2
:10D1E000FED2020055D20100CF8B0200F0B5040040
:10D1F0000E00150085B01F000CAB1B88103001938A
:10D200000AF05BFB268065801820FCF7E3FA02AE8B
:10D21000050033000AAA03CA03C32F6028000827A9
:10D2200000213A000C300DF0DEFF3A003100281DDD
:10D230000DF0BDFF064B02226B6120000023019917
:10D24000A5600A43E360A2802362636205B0F0BD7B
:10D25000F98B0200F0B50B898DB00593CB68060001
:10D2600004934B88828C9A420ED1049C049B059AAD
:10D270009B181B1B032B3BDD62882188012308A818
:10D280000AF025FB0434F1E7428C9A4230D1049C29
:10D29000049B059A9B181B1B032B29DD2388282040
:10D2A00006936388F7680793124B0893002309934A
:10D2B000FCF790FAC0236A460500029308AB03CB43
:10D2C00003C233000699079A2800FFF78FFF3B68D7
:10D2D00029005B6838009847002807D0002D05D04A
:10D2E00028000AF00FFA2800FCF794FA0434CFE77C
:10D2F0000DB0F0BDB78C020070B5040090B080682E
:10D300000BF0D4FC022101401AD1A38D002B17D0C1
:10D310000C4B6A4604931023E568A185059102939E
:10D3200004AB41CB41C20A00230006A8FFF75EFF11
:10D330002B6806A99B682800984706A80AF0E2F91E
:10D3400010B070BDB78C0200002815D0006041609D
:10D350008260C360046145618661C76144460462BE
:10D360004C464462544684625C46C462644604632C
:10D370006E46466374468463002A06D0C46B043C40
:10D38000043A25681560B442F9D18C6BA6464E6B01
:10D39000B546002B06D0CC6B043C043B1D682560D1
:10D3A000B442F9D10C6BA446CC6AA3468C6AA2465F
:10D3B0004C6AA1460C6AA046CF698E694D690C691A
:10D3C000CB688A680868496870470060416082607D
:10D3D000C360046145618661C761444604624C468E
:10D3E0004462544684625C46C462644604636E468A
:10D3F000466374468463C46B043C043925680D603D
:10D40000B442F9D1C769866945690469704700600B
:10D4100041608260C360046145618661C7614446C2
:10D4200004624C464462544684625C46C46264466C
:10D4300004636C4644637446846304697047846B78
:10D44000A646446BA546046BA446C46AA346846AF8
:10D45000A246446AA146046AA046C769866945692E
:10D460000469C368826800684168704710B5041E8B
:10D470000CD00DF0F8FE431EE3189C4208D222782F
:10D480001978013B21705A700134F6E7014810BD4C
:10D490000020FCE717FCFFFFF0B585B002900C1EE2
:10D4A0002AD00023C217161A56400193019B300060
:10D4B0005D1C63190A215F1E039304F017F94942AA
:10D4C0003031397030000A2104F02AF84742060052
:10D4D000002F0FD1029B002B04DA2D23019D039A0C
:10D4E00002351370002320006355FFF7BFFF38009B
:10D4F00005B0F0BD0195D9E7004FF8E717FCFFFF35
:10D5000010B582604A4304004160002A0ADD074BDF
:10D5100090009A4201DD01204042FCF75BF9206057
:10D52000200010BD00230360FAE7C046FEFFFF1F86
:10D530004A688B6870B58360534304000D004260F5
:10D54000002B12DD0A4A9E003000934201DD0120CB
:10D550004042FCF73FF9002320602A68D158C150AF
:10D5600004339E42FAD1200070BD00230360FAE725
:10D57000FEFFFF1F014B03607047C04620C402003E
:10D5800030B500684488A1420CDA8588AA4209DADD
:10D59000002907DB002A05DB54434018001983717A
:10D5A000002030BD0048FCE717FCFFFFF0B5070086
:10D5B00085B00E001D0000291FDD002B1DD0046862
:10D5C000638803938B4200DD0391A3880293934207
:10D5D00000DD0292002306340193019B029A9342DC
:10D5E0000EDA29002000039A0DF0E1FD3B68AD1929
:10D5F0005B88E418019B0133EEE7024805B0F0BDFB
:10D600000020FBE717FCFFFFF8B504000D00160033
:10D610001F00002901DB002A02DA0E4B2360F8BD4F
:10D62000100048430630FCF7D5F820600AF0B5F941
:10D6300023685D8023689E80002F06D03B00320067
:10D6400029002000FFF7B2FFE9E720000CF0C6F93F
:10D65000E5E7C04620C40200F0B5060087B00D1E05
:10D6600004D1244B0360300007B0F0BD00200F0050
:10D670000400010001903B78002B1AD03022524266
:10D6800094469C446246092A11D90A2B0AD1019B6F
:10D69000241801330193A14200DA21000020040084
:10D6A0000137E8E70028FBD001340020F8E701202B
:10D6B000F6E76A46928809B212B23000FFF7A4FF7B
:10D6C00033689C1D03AB1F002A78002ACBD01100C1
:10D6D0003039092903D81A7001330135F4E70022E3
:10D6E0001A70BB42F9D938000DF041FD3B002070A3
:10D6F0000134F2E720C40200F0B5040089B006A8A6
:10D700000E0002921D00FBF7EFFF236802995A8872
:10D71000914235DA9B889D4232DA1F2E30D9079B21
:10D7200001939E422CDC0523002273430393069B46
:10D730000493039B04999B18A03BCB5C00210593A9
:10D74000AE18029BCF1823685888019087420EDAE2
:10D750009888B0420BDDDB1910270F410198704308
:10D760001B1805980740781E87417F429F71013141
:10D770000529E6D10132052ADBD1002009B0F0BD30
:10D780000048FBE717FCFFFFF7B504680700638854
:10D790000E1E01931EDD994218DA00230634009311
:10D7A0003B68009A9B889A4212DA019BA1199D1B43
:10D7B0002A0020000DF0FBFC601931000CF000F98C
:10D7C0003B685B88E418009B0133E8E70CF006F93E
:10D7D000002000E00048FEBD17FCFFFF10B5054823
:10D7E000054C20600AF0DCF8044A054920000DF0E1
:10D7F000ABFC10BD20C40200142700200020002034
:10D80000B399020070B5002817D1114D2E68002E73
:10D8100011D108300DF082FC066046600D4E040008
:10D820003368002B02D10CF028FE306023682C6096
:10D830009B00F3586360286870BD012206490748C1
:10D840000B681340F8D1026043600A60F4E7C046F9
:10D850001C27002028270020182700202027002030
:10D86000002370B504000160436099420AD1064D5F
:10D870002B68002B02D10CF000FE286023689B006F
:10D88000EB586360200070BD28270020436810B566
:10D890000400002B02D104480DF098FA6068036878
:10D8A0001B69984710BDC0460ED30200436810B5EF
:10D8B0000400002B02D104480DF088FA6068036868
:10D8C0009B69984710BDC0460ED30200436810B54F
:10D8D0000400002B02D104480DF078FA6068036858
:10D8E0005B6A984710BDC0460ED3020010B5040015
:10D8F00002F0EAFC034B1B68002B01D02000984784
:10D9000010BDC04630270020F0B58BB0050001F0F7
:10D9100075FE002000F0B4FD036807001B699847FE
:10D920003B6804009B69380098473B6806005B6AC7
:10D93000380098470300288810380B2862D803F075
:10D940005BFD063E6161615B616161676179AF8822
:10D95000200039000DF001F822006B7B5832019352
:10D960001378A8799C46022361460B43137004ABDD
:10D970001F80012304AA9370D07013006A461279A5
:10D98000E91D9A722B000622163305A809930DF0A3
:10D990000EFC29000B2004AB06220E31C0180DF03E
:10D9A00006FC94346368A360A06800282AD0C3688A
:10D9B00004A99847A368002BF4D01B69F3E7200063
:10D9C0002F49AF880CF0C9FF22000220583213788B
:10D9D000A9798343137004AB1F809970A0346368E6
:10D9E000A360A06800280DD0C36804A99847A36865
:10D9F000002BF4D01B69F3E75B69A888A91D002BF5
:10DA000000D09847290030000CF0F3F90BB0F0BDBE
:10DA1000636E002BF6D0AF79A366A06E0028F1D01C
:10DA2000C36839009847A36E002B01D1636EF3E7FA
:10DA30001B69F1E7012269460D27AB7BEF571A40BE
:10DA400001925A07920FDB080A720B730622E91D36
:10DA500004A80DF0ACFB6A46127904ABDA716A4691
:10DA6000127A9F711A726A46127B20005A722B003A
:10DA70000F3307938C348030236804A99847C1E79B
:10DA8000FFFF00000723D72802D9024B18600023AC
:10DA9000180070472C270020014B18607047C046C3
:10DAA000302700201FB58022A323D205DB00D358E6
:10DAB0000820DB0700D405301C4B48221C4901F02C
:10DAC00009F900280AD080B2002807D1BFF34F8F90
:10DAD000184B194ADA60BFF34F8FFEE7002302A804
