:020000021000EC
:10800000004000200D0A0200490A02004B0A02004B
:108010000000000000000000000000000000000060
:108020000000000000000000000000004D0A0200F7
:1080300000000000000000004F0A0200510A020088
:10804000530A020045B6010065100200530A0200FF
:10805000530A020000000000850A0200530A0200D1
:10806000530A0200E9120200ED0E0200530A020058
:10807000530A0200530A0200530A0200530A020084
:10808000530A0200530A0200530A0200530A020074
:10809000530A0200B50702004DEE0100530A020028
:1080A000530A0200530A0200000000000000000012
:1080B00000000000000000000000000000000000C0
:1080C00010B5064C2378002B07D1054B002B02D0AE
:1080D000044800E000BF0123237010BD28220020C7
:1080E00000000000D8BC0200044B10B5002B03D0E8
:1080F0000349044800E000BF10BDC0460000000076
:108100002C220020D8BC0200164B002B00D1144BAF
:108110009D46402292029A1A924600218B460F46B3
:108120001348144A121A12F024FB0F4B002B00D0F4
:1081300098470E4B002B00D09847002000210400E8
:108140000D000D48002802D00C4800E000BF0DF0E3
:10815000C9FF2000290012F0C2F80DF0ADFFC046A3
:1081600000000800004000200000000000000000A7
:1081700018220020C42A0020000000000000000097
:1081800010B50400034B036040300EF0C9FD200021
:1081900010BDC04638AA0200F0B585B01F000AAB7A
:1081A0001B880600029115000393002F1CD0282085
:1081B00001F0A4FB6B4604001989039BAAB200934B
:1081C0003B000EF04CFD336821005B68300098479F
:1081D00000280AD0002C05D020000EF057FD20000A
:1081E00001F0ACFB024800E0024805B0F0BDC0461B
:1081F00016FCFFFF17FCFFFF154BF7B51B680024AB
:108200001A00261CC8321C8002339342FBD101277E
:108210000A22104B55211F700F4B01A81A700EF047
:10822000A9FDC82201A952000C4802F061FE01A874
:108230000EF076FD0A4D3900280003F05FFA2800A1
:10824000072103F08FF9074B1E70074B1C70F7BD19
:1082500050220020EE290020F02100205823002089
:1082600038260020EF290020F3290020D3B5020092
:10827000802000060B18190010000CF0A1FB0090E4
:108280000191144800F0DEFF124909F0C1F90CF029
:1082900045F8002406000F00009A019B30003900C9
:1082A00009F0CCFA002811D00A4800F0CBFF0949A8
:1082B00009F0AEF90CF032F802000B003000390082
:1082C0000BF03CFA013406000F00E5E720000AF04D
:1082D00085FAD6BDFFFFFF7F37B5102168460EF047
:1082E00012FE68460EF01EFE0C23040002250370E9
:1082F00004221949013012F020FA2A00601D1749A2
:1083000012F01BFA2A00E01D154912F016FA20009F
:108310002A001449093012F010FA200008221249EC
:108320000B3012F00AFA20002A0010490F3012F028
:1083300004FA07210E4803F015F9694601A80EF06A
:10834000BFFD01A90B480FF03EFC01A80EF0B1FDE6
:1083500068460EF0AEFD37BD582200209829002057
:108360009E2900209A29002054220020F029002074
:10837000382600205026002037B5194C05002378F8
:10838000012B26D1492101A80EF0F4FCC82201A935
:108390005200144802F0ACFD01A80EF0C1FC002D03
:1083A00009D0114B114D1868114B1B78002B11D1BE
:1083B0000AF0F4F9287001F069FB0E4B0E4A1B68B5
:1083C00012689B1A18180D4B1860FFF785FF0223DF
:1083D000237037BD0BF0DCFFFFF748FFE8E7C0462E
:1083E000EE2900205823002060220020F0290020E0
:1083F000F12900205C2200201822002054220020B5
:1084000037B50D2168460EF07EFD68460EF08AFDF8
:108410000D2304000225037004221449013012F0D8
:108420008CF92A00601D124912F087F920002A00F9
:108430001049093012F081F9200008220E490B3052
:1084400012F07BF907210D4803F08CF8694601A86A
:108450000EF036FD01A90A480FF0B5FB01A80EF099
:1084600028FD68460EF025FD37BDC0465822002085
:10847000982900209A290020642200203826002014
:1084800050260020F0B58DB00290039108A8C7498E
:108490000593049203F04AFA08A80EF043FDC44E77
:1084A0000400337801930A2B54D10378052B4CD167
:1084B000411C04220AA812F040F9BE4B0A9A1B681C
:1084C0009A4242D10222611DBB4812F036F901F0F6
:1084D000DDFA0022B94BE11D18605A60B848043239
:1084E00012F02BF9210004220B31B64812F025F9C5
:1084F000210002220F31B44812F01FF9210004229A
:108500001131B24812F019F92100627DB04B1731D8
:108510001A70A27DAF4BB0481A70022212F00DF90A
:108520000B230221AD48337003F0E8F853210BA868
:108530000EF020FCC8220BA95200A94802F0D8FC7A
:108540000BA80EF0EDFB00F0A3FE08A80EF0B1FCA6
:108550000DB0F0BD019B0B2BF7D105780A2D02D190
:10856000FFF74AFEF1E70B2D02D10C233370ECE745
:10857000062D2FD19B4B1B78012BE6D1411C0422E9
:108580000BA812F0DAF88E4B0B9A1B689A42DCD1DA
:1085900009AD0222611D280012F0CFF88A4B2A880B
:1085A0001B889A42D1D10AAD0222E11D280012F0A7
:1085B000C4F8814B2A881B889A42C6D1607A8A4BBC
:1085C0008A4A18708A4B1A8043425841C0B2FFF75A
:1085D000D3FEBAE7072D5CD1411C042209A812F092
:1085E000ACF8774F099B3A689342AED107AE0222AE
:1085F000611D300012F0A1F8734B32881B889A423B
:10860000A3D1162602ABF6180222E11D300012F0AB
:1086100094F8784A338812685B00D21813880133C3
:108620009BB213806C4A12889A4200D08DE7019960
:108630000AA80EF068FC0AA80EF074FC08230400D7
:10864000037004223900013012F077F802225E49EB
:10865000601D12F072F802223100E01D12F06DF878
:10866000200002225449093012F067F829005B48C3
:1086700002F078FF0AA90BA80EF022FC0BA94B48C8
:108680000FF0A1FA0BA80EF014FC0AA80EF011FCD2
:108690005BE7082D00D0B1E0524B1E78022E00D0CF
:1086A00053E7411C042209A812F047F8444B099AE9
:1086B0001B689A4200D048E702AB0A35ED18320039
:1086C000611D280012F039F83F4B2A881B889A4216
:1086D00000D03AE707AE0222E11D300012F02DF87B
:1086E000354D32882B889A4200D02EE71623210080
:1086F00002A81B1802221800093112F01EF80B21E3
:108700000AA80EF000FC0AA80EF00CFC09230400D5
:10871000037004222A49013012F00FF802222A497C
:10872000601D12F00AF802222900E01D12F005F87F
:108730001623200002A95B1819000222093011F04B
:10874000FCFF0721254802F00DFF0AA90BA80EF037
:10875000B7FB0BA915480FF036FA0BA80EF0A9FBD2
:10876000214A1378002B90D0013BDBB21370002B11
:108770008BD103221B4B1A7001F088F9114B0F4A61
:108780001B6812689B1A18181B4B1860FFF738FEFD
:1087900052210BA80EF0EEFAC8220BA95200104885
:1087A00002F0A6FB0BA80EF0BBFA6EE750260020E5
:1087B000F0210020682200209A29002018220020A1
:1087C000582200205C2200209829002060220020EE
:1087D000F1290020F22900209C29002038260020C1
:1087E00058230020EE290020F0290020FF7F000000
:1087F0009E2900205022002064220020092D2FD124
:10880000454B1B78012B00D09FE6411C04220BA88E
:1088100011F093FF414B0B9A1B689A4200D094E6EB
:1088200009AD0222611D280011F087FF3C4B2A8808
:108830001B889A4200D088E621000AAD0222093145
:10884000280011F07AFF374B2A881B889A4200D003
:108850007BE6E11D0222344811F06FFF0120B6E6ED
:108860000E2D2BD12C4B1B78012B00D16DE6411C1A
:1088700004220BA811F061FF284B0B9A1B689A4247
:1088800000D062E609AD0222611D280011F055FFFB
:10889000234B2A881B889A4200D056E60AAD022252
:1088A000E11D280011F049FF1E4B2A881B889A42BF
:1088B00000D04AE61D4B01221A7046E60F2D00D06B
:1088C00043E6154B1B78032B00D03EE6411C0422E7
:1088D0000BA811F032FF114B0B9A1B689A4200D083
:1088E00033E609AD0222611D280011F026FF0C4B72
:1088F0002A881B889A4200D027E60AAD0222E11D91
:10890000280011F01AFF074B2A881B889A4200D0D2
:108910001BE6074BCFE7C046EE2900205822002077
:10892000982900209A2900209E290020EF29002064
:10893000F329002037B5092168460EF0E4FA6846AD
:108940000EF0F0FA072304000225037004221149F7
:10895000013011F0F2FE2A00601D0F4911F0EDFE0A
:108960002A00E01D0D4911F0E8FE0D4B0D48197865
:1089700002F0F8FD694601A80EF0A2FA01A90A4822
:108980000FF021F901A80EF094FA68460EF091FA62
:1089900037BDC04658220020982900209A2900207F
:1089A000F2290020382600205026002037B5052166
:1089B00068460EF0A8FA68460EF0B4FA0425057071
:1089C00004000EF075F80C492A000860601C11F0D4
:1089D000B4FE0721094802F0C5FD694601A80EF062
:1089E0006FFA01A906480FF0EEF801A80EF061FA3F
:1089F00068460EF05EFA37BD682200203826002057
:108A00005026002073B50100060001A80EF0EAF917
:108A100001220B4D01A928000FF05FF9040001A805
:108A20000EF07EF9074B9C4208D10A2000F024FE8C
:108A3000310001A80EF0D6F90222EBE773BDC04663
:108A4000702200200DFCFFFF10B58CB02B490BA845
:108A50000EF0C8F92A4C022321000BAA04A803F047
:108A600097F90BA80EF05CF9200003F041F8002103
:108A700004A80EF0E4F931283AD1224B05A8196870
:108A80000EF06BF9204906A801F044F800F01EFB37
:108A9000010007A801F03EF805AA1C4908A80EF03D
:108AA000B8F906AA08A909A80EF0B3F907AA09A9F6
:108AB0000AA80EF0AEF9164A0AA90BA80EF0A9F9F9
:108AC0000BA8FFF79FFF0BA80EF02AF90AA80EF0DB
:108AD00027F909A80EF024F908A80EF021F907A833
:108AE0000EF01EF906A80EF01BF905A80EF018F9F5
:108AF00004A80EF015F90CB010BDC04648220020A5
:108B0000702200206822002066B602004C2200205D
:108B10004422002070B5174D280000F01BF9164CB8
:108B200016492200280011F0DAFD154E15493000D3
:108B300000F0F0FF144D22002900300011F0CFFDAD
:108B4000124E1349300000F0E5FF220029003000EA
:108B500011F0C5FD0F4E1049300000F0DBFF290079
:108B60002200300011F0BBFDC82000F0C7FE0B4B07
:108B7000186070BD6C22002000200020A18B010035
:108B80004C22002054B60200216D02004822002031
:108B900069B602004422002068B60200502200207C
:108BA000EB23194A9B0010B5C2501C330400C018B7
:108BB0000EF0B6F8F1239B00E0180EF0B1F8842314
:108BC0009B00E01801F00EFB2000C530FF3001F0E3
:108BD0002DF820008D30FF3001F0CAFA20006530FA
:108BE000FF3001F0C5FA2000EC3001F09DFF2000BD
:108BF000D03002F073FB2000643007F05FFE201DD0
:108C0000FFF7BEFA200010BD34AC0200F0B54548B5
:108C10008DB000F05FF9444D2021280003F098F951
:108C20004021280002F0D4FFE1211026490228004B
:108C300002F018FF3D4C3E4F01223B0020210096E0
:108C40002000FFF7A9FA3B4902A80EF0CBF800225A
:108C500002A9280002F038FF02A80EF061F8364B96
:108C600001221D2100962000FFF796FA334802F0FA
:108C700059FDFFF7C1FA324D2B780A3B012B29D859
:108C80002B780A2B06D1FA20800000F0F5FCFFF7C4
:108C90008DFEF5E72B780B2BEDD1FA20800000F04C
:108CA000EBFC284E3378022B01D1FFF743FE3378DB
:108CB000022B05D0244B1B78002B01D1FFF70CFBB6
:108CC0003378032BE6D1214B1B78002BE2D1FFF741
:108CD00097FBDFE710251E480EF09AFC3B000122AF
:108CE0000095202102A80DF0BAFF02A9200002F091
:108CF00053FA02A80DF0CAFF0F4B012200951D2167
:108D000002A80DF0ACFF02A9200002F045FA02A86B
:108D10000DF0BCFF094802F0C7FC00F025FD002063
:108D20000DB0F0BD6C220020702200203C230020FA
:108D3000498A01004822002085840100382600204D
:108D4000F0210020EE290020EF290020F329002047
:108D5000582300201423F0B5040095B00093192285
:108D60001821043002F088FE220027006432B43754
:108D700013211000119207F0ADFD38000EF0F5FF41
:108D80002200B83210921E21002210980EF045FCED
:108D90002000D03002F0C2FA2200EC3212920621FA
:108DA000494A129801F0E4FE2000002601236530B4
:108DB0001A0000961121FF3001F0E6F920008D30F5
:108DC0000096012302221A21FF3001F0DDF925006F
:108DD0002000C535B530FF351A2302220121FF30AE
:108DE00002F05AFB109904233A22280000F0CEFF2B
:108DF00084229200A218139205231D22019300924F
:108E00003B002A001099139801F0E2FB9622920091
:108E1000129BA01813992A0001F0B4FD9922920028
:108E2000A01839001C2203F0B1F919239F220F93D7
:108E3000013B0E93013B0D93013B0C93013B0B93C4
:108E4000013B0A93013B0993013B0893013B0793C4
:108E5000013B0693013B0593013B0493013B0393C4
:108E6000013B0293013B01939200013BA018009348
:108E70000822013B07210EF0D8FBEB239B00E018F2
:108E8000390003F023FDF3239B00E0181D2102F0BD
:108E900049FBFD239B00E65011982670032111F039
:108EA0002DF923002200200008499C33A0321C60C9
:108EB00011605660064A80305A610221012207F093
:108EC00093FE200015B0F0BD40AA0200A96902007F
:108ED000936902000123F0B506788DB004001E40AE
:108EE00000D0A4E0FD20800500F0D0FC2300D033AA
:108EF0001800029300F0A4FA00F0CAF9282000F04C
:108F0000FDFC050010300DF0A7FF4A4B18202B6028
:108F100000F0F4FC0700484B0460082231000C30DC
:108F20000A930B9611F025FC0AA9381D082211F0AE
:108F300004FC424B29007B611223AF60EE60AB80E2
:108F40002E626E62029802F061F9002805D02800B6
:108F50000DF09CFE280000F0F1FC01232278642033
:108F60001343237000F088FB002527006537FF3787
:108F700038000EF030F9002855D020008D30FF3039
:108F80000EF029F900284ED00A2D4CD0642001356E
:108F900000F072FB0A2DE8D129492A4800F04CFC68
:108FA000EB23FD269B00E318B6000393A359002B87
:108FB00032D100F057F8010006A800F0ABFD0DF02B
:108FC00077FD04900DF074FD6B460590198A08A892
:108FD0000DF0C3FE059B09A8190C0DF0BEFE09AAF1
:108FE00008A907A80DF015FF09A80DF099FE08A81B
:108FF0000DF096FE012307AA06A900930398029B91
:1090000003F0B8FC07A80DF08BFE06A80DF088FE53
:10901000ED239B00E358A35121003A00EC31039863
:1090200003F04EFEA1E70649074800F005FC0DB02D
:10903000F0BDC046FD0300001B6A0200DB690200B0
:1090400000200020001C002008000020BFF34F8FEC
:10905000024B034ADA60BFF34F8FFEE700ED00E0FA
:109060000400FA05F0B58DB005AF19221549380096
:1090700011F063FB0022144B05245A718022520523
:10908000566E01222500019402920393019930004B
:1090900008F0BAFA0800029908F030FA019B039927
:1090A0006B430193029B361A6B430293631E2C1B86
:1090B0006C433C19225C1C1ECA54E7D108000DB059
:1090C000F0BDC046A2B60200F42900200048704757
:1090D000BBB60200F0B597B018220021060010A818
:1090E00011F047FB132110A811F064F9032110A817
:1090F00011F0F6F94C4B1B68002B00D10133DBB2A9
:1091000002934A4A012300210BA807F0DBFE484BDB
:109110009E4200D9002672B6464B64211D68464B1C
:1091200030000793052408F073FA60435030281884
:1091300008900A21300008F06BFA0A2108F04EFB73
:10914000614350316918099130000A2108F046FB4B
:10915000802361430024503169189B010A910193D7
:10916000029B002B5DD0002500272E1F07AB9B190B
:109170000593032C03D1802300249B01019307ABAB
:109180005B592E4A03936300D318049300231900FC
:1091900006205843049A16187678B4466246039E11
:1091A000B25C10269446049A105C62460641164250
:1091B00002D00120984001430133092BE8D1C94373
:1091C0001F4B059A090119401268039B934225D150
:1091D000312F23DC00210BA811F03BFAFA23159A5A
:1091E0001199DB00106801421BD0013B002BF9D123
:1091F000019B01345B000193FA230137E4B25B0069
:109200009F42B6D10435102DAED1074B1B68002B01
:10921000A6D0029F013FFBB20293A1E7019B194335
:10922000D9E7FFF713FFC04668260020F0FF0000D3
:10923000E70300000420002007B70200D1B60200B7
:10924000F01F0000F0B500281BDD0F4C421E276800
:1092500011000020BE09FB0F73407B403E097D08D2
:109260007340BF087B406B40DB072B4301251F0089
:1092700040002B401843E940ECD18242E8D32760FC
:10928000F0BD0248FCE7C0466426002017FCFFFF43
:10929000F8B50023124C23600DF0FCFB002808D029
:1092A000042120000DF0F2FB002801D00D4B2360BB
:1092B000F8BD0122A12704250B4B0C491A60226836
:1092C000FF0048604E68002EFCD0DE591202013DBE
:1092D0003243002DF5D1226001225A60E8E7C046F2
:1092E00064260020ED5EBC0B00D00040FCD00040A6
:1092F0000B4B70B51C68002C10D0656D00F0C6FBE0
:10930000A36C002901D1834206D820000DF0F5FBA3
:10931000044920000DF0DFFB2C00ECE770BDC046D7
:109320007026002090260020F0B593B007932A4BBA
:1093300004AC1E68049005910692002E4AD0274B7B
:10934000258867881C6800230293002C2ED0636D4B
:1093500023480393A36C9AB2A36C1B0C99B2854269
:1093600014D12048824211D1002B01D0B9420BD137
:10937000029B002B08D120000DF0BFFB1A492000F2
:109380000DF0A9FB01230293039CDEE7002A01D024
:109390009542F9D1002B01D0B942F5D120000DF052
:1093A000ACFB114920000DF096FBEDE70F4BEB18DD
:1093B000012B0FD910233A00009329000C4B08A869
:1093C0000DF04DFC336808A99B683000984708A849
:1093D0000DF05CFC13B0F0BD6C2600209C26002034
:1093E000FE030000FF0300009026002002FCFFFFA8
:1093F0002993010010B572B60B4B1C68002C08D0E5
:1094000020000DF07AFB0023E364084B2000E363A7
:1094100010BD62B65C2000F071FA5C2200210400ED
:1094200011F0A7F9EFE7C046942600200040002085
:10943000024B1878012318407047C046FA290020D3
:10944000F7B50600FFF7F4FF051E33D11A4C26606E
:10945000FFF7D0FF194B1A4918600DF03CFBFFF7DE
:10946000C9FF184B1860184B4363184B836320687F
:1094700000280ED0C027164E2A0033001549009749
:10948000FEF78AFE009733002A0013492068FEF792
:1094900083FE0C2000F032FA0023838083710F4B8F
:1094A00003600F4B836000F009FB01230D4A117824
:1094B0000B431370F7BDC0466C260020A026002089
:1094C0009026002098260020FC3F0020C16B02005F
:1094D00029930100FF030000FE03000060AA0200C0
:1094E000F1920100FA290020F7B506000D001700DF
:1094F0000193002802D100242000FEBD0029FAD0EB
:10950000FFF778FF041EF6D0074B019A436306600D
:1095100045608760054B002A00D0054BA3630549D1
:1095200020000DF0D8FAE7E7FC3F00208B6B02002B
:10953000A96B020090260020024B18684342584154
:109540007047C04690260020002310B504499C00B7
:109550006258002A01D00133F9E76050100010BDB5
:1095600078260020002310B5044A99008C588442C4
:1095700001D00133F9E70020885010BD7826002083
:1095800010B50024084BA200D058002802D0036870
:109590005B6898470134062CF4D1044B1B68002B00
:1095A00000D120BF10BDC0467826002090260020A4
:1095B000F8B5FFF73DFF00281BD0294D2C68E36C60
:1095C000DA0717D502263343E3640423254F3868AE
:1095D000C26C1343C364636BC3630DF0B4FA3868A1
:1095E000416C03F06AFF2868C36C334201D003F07A
:1095F0009EFFF8BD1C4F1D4E3A683168002A1ED1EF
:1096000029602A688A4208D11B0706D52C60FFF71B
:10961000B7FF3B68002BFAD02B6029688C42E8D05A
:109620003368994214D1124B4B63124B8B63200069
:109630000DF089FA2968626C4B6C20000DE0206DFA
:10964000B84203D1606D002800D002002A60D8E73C
:109650009C42ECD1002210004B6C03F0EDFEC8E7F9
:10966000A0260020742600209026002098260020A6
:10967000FC3F0020C16B020070B50500FFF7D8FE6B
:10968000002803D1280010F024FF70BD0C4B1C688B
:10969000E36CDB0706D5FFF7ADFE0A4B1860002828
:1096A00000D0040000F0F2F92D18A56420000DF0A0
:1096B00024FA054920000DF00EFAFFF779FFE4E7E0
:1096C000A02600207426002070260020F0B51E4B36
:1096D0001E4F1C683B6885B006000391002B30D0FC
:1096E000FFF7A6FE00282CD0E36CDB070ED5FFF7B2
:1096F00081FE174B051E186008D00DF0FEF91549C4
:1097000028000DF0E8F92C00FFF752FF039B200022
:109710001B043343A3640DF0F0F920000E490DF053
:10972000DAF90E4B0024F318012B07D9C02300935C
:10973000039A0B4B31003868FEF72EFD200005B070
:10974000F0BD084CFAE7C046A02600206C26002099
:1097500074260020902600209C26002002FCFFFF9B
:109760002993010016FCFFFF10B5FFF761FE0028EA
:1097700009D0054C20680DF0C0F9044920680DF0AF
:10978000AAF9FFF715FF10BDA0260020942600209F
:10979000F7B507000D0000282ED0FFF749FE00287E
:1097A0002CD00724164E3068C36C1C4007D0154AD5
:1097B000290038000DF0B8F900242000FEBD03F0A8
:1097C0009EFE02213268D36C1940019103D003211F
:1097D0008B43D364F1E701242343D3642800B847C3
:1097E0003268D36C1900A143D164019C5B07E4D5B6
:1097F00028000DF0D1F9E0E7034CDEE7034CDCE78D
:10980000A0260020996B020017FCFFFF16FCFFFF4B
:10981000020010B5014B12CB12C210BDA4260020CD
:10982000034B1A68034B1A607E225A607047C04689
:1098300004200020A426002070B5104D2B78022BA8
:1098400018D0814218D90B1A072B15D90C00032305
:1098500004431C4010D172B62A78094BD200D05074
:10986000981841600DF0B2F92B7801332B7062B675
:10987000200070BD0348FCE70348FAE7FB290020FD
:10988000AC26002013FCFFFF17FCFFFF70B5002182
:10989000041C08F003F8002828D1FE21201C8905AB
:1098A00008F006F8002821D104300CF03FFC050038
:1098B0000F48401B08F0DCFF211C08F079FC08F081
:1098C0002BF803239843040028000CF039FC2000F7
:1098D0000CF02CFC002804D1203C002CF7D10548CA
:1098E00003E00119FFF7A8FF002070BD0248FCE764
:1098F0000038002013FCFFFF17FCFFFF70B50600C7
:1099000000250C4B1B78AB4209DD0B49EB00C91855
:1099100030000DF063F9041E09D10135F1E7300084
:109920000CF004FC041E02D11420FFF7D3FB20002E
:1099300070BDC046FB290020AC26002070B5002871
:1099400013D00D4B0D491C7800239C4210DDDA002A
:10995000555885420AD28A185268824206D9802315
:10996000043802681B061343036070BD0133ECE743
:109970000CF0E6FBF9E7C046FB290020AC260020EE
:1099800070B5051E14DD0B4E0B4C3368002B02D056
:10999000206810F029FCFA2120680024074B890078
:1099A0008361C4626943356010F026FC200070BDFD
:1099B0000348FCE7BC260020EC260020699A010041
:1099C00017FCFFFFF8B5114F06003D68002D0AD1C6
:1099D0003020FFF793FF040006F0D6FF0C4BA56183
:1099E0002360E5623C600B4D2B68002B09D11020F1
:1099F000FFF784FF040010F04BFC20002C6010F0F7
:109A000021FC3000FFF7BCFFF8BDC046EC2600206B
:109A1000E4AF0200E8260020014B18687047C046FA
:109A2000BC26002070B50D4C2368002B03D00C4BD6
:109A30001B68002B02D10620FFF7C4FF206810F03E
:109A400018FC02000749C3170D684E68521973418C
:109A500020680A604B6010F012FC70BDE826002000
:109A6000EC2600202022002010B5FFF7DBFF0024A9
:109A7000054BA200D058002802D003681B68984705
:109A800001340A2CF4D110BDC026002010B5FFF718
:109A9000C9FFFA22034B920018685968002307F0A7
:109AA0001BFF10BD2022002010B5FFF7BBFF024BAB
:109AB0001868596810BDC046202200200B4B10B515
:109AC0001B680400002B03D0094B1B68002B02D13C
:109AD0000620FFF777FF0023064A990088580028E0
:109AE00001D00133F9E78C5010BDC046E8260020B4
:109AF000EC260020C0260020002310B5044A99005F
:109B00008C58844201D00133F9E70020885010BD01
:109B1000C026002010B50400002902D00B78002BCD
:109B200003D1034B2360200010BD0DF000F9FAE7CC
:109B300070AA0200F8B504000E00150000290AD032
:109B40000B78002B07D0002A05D0080097B210F040
:109B500050FE874203D90B4B23602000F8BD681DDF
:109B6000FFF7CCFE20600DF0E3F923682A005F8048
:109B700023683100181D10F0E0FD23685D190023F3
:109B80002B71EAE770AA0200014B03607047C046E0
:109B900070AA020010B50548054C20600DF0CBF905
:109BA000044A0549200010F09AFD10BD70AA020079
:109BB000F026002000200020216D0200084B73B524
:109BC0001C680500002C0AD0010026680831082214
:109BD000684610F0B2FD0CCD31682000884773BD97
:109BE000F426002010B5054C012120000DF08BF962
:109BF000034A0449200010F072FD10BDF826002031
:109C000000200020B36E02000388074A10B501202F
:109C1000934208D0834202D00020DB0703D41E20E9
:109C2000FFF758FA002010BDFFFF000010B5040038
:109C3000034B08330360FFF795FC200010BDC046BE
:109C4000B8AA0200FA2270B5438992005343314A00
:109C500031491400050038348B421BDC2F498B42FC
:109C600018D82F49083C8B4214D82E49083C8B4207
:109C700010D82D49083C8B420CD82C49083C8B420B
:109C800008D82B49083C8B4204D82A4914008B423F
:109C900000D90834284B2A7B1E1D042A03D89E1C99
:109CA000022A00D81E00FA212068890007F026FC4D
:109CB000337868812B7300222A2128000DF05FF988
:109CC000002801D01D4870BD10222B2128000DF066
:109CD00056F90028F6D101222D2128000DF04FF968
:109CE0000028EFD101222E2128000DF048F900288C
:109CF000E8D172780E2128000DF041F90028E1D159
:109D0000012223792A211A4328000DF038F900286E
:109D1000D9D0D7E778AA020000C409000071020078
:109D200080380100204E000010270000881300003A
:109D3000C4090000E2040000E7B802000EFCFFFFC7
:109D40007FB515000F226A4404001E001170002D1B
:109D500016D0002B14DD012301890093006B01F064
:109D6000D1F9002802D0074804B070BD00902189C5
:109D700033002A00206B01F07BF90028F4D0F2E7D1
:109D80000148F1E70EFCFFFF17FCFFFFF7B50600E7
:109D9000002501931E4B14360833040003608580B0
:109DA0008571C581058245820F0000922900182225
:109DB000300010F0DEFC1C21300010F0FBFA6B4686
:109DC0009B880221A3806B461B88220023811423D9
:109DD000A5712173A563A58763813E32137827633C
:109DE0008B43F1310B40137023009572958101353F
:109DF000221DD5870833A21DD5872000DD87FFF7F8
:109E000021FF002802D1A3791D43A5712000FEBDCA
:109E1000B8AA020030B50425837987B004002B422C
:109E200004D1FFF791FBA3791D43A571A36AA26931
:109E30001B6800251A4208D106236A46012120002A
:109E4000FFF77EFF051E03D0114D280007B030BD7F
:109E50006B460222042069469A561856237BD2008C
:109E60005A43228202220978C00049B2C9005943EC
:109E700043436382A379E1819343A37120000DF0F2
:109E80008CF80123A1881A0002A80CF0EFFFDCE790
:109E90000EFCFFFFF8B50400FFF7BCFF0E22A35E27
:109EA000794F5B42BB4251DA23003E331B789B075C
:109EB0004CD50125210028003E310B785A089043EB
:109EC00002000220AA40834313430B702000FFF7D7
:109ED000A1FF1022A35E5B42BB4248DA23003E335F
:109EE0001B785B0743D50125210028003E310B7804
:109EF0009A08904382000420834313430B7026008A
:109F00002000FFF787FF1222A35E4836BB423EDAED
:109F100023003E331B781B0739D5210001223E3137
:109F20000B78D80882430820D200834313430B7078
:109F30003378032B3BD80133DBB23370012B00D0D5
:109F40008DE0230000224A331A8030E02000FFF722
:109F500061FF0E22A35EC8225B425200002593429D
:109F6000B4DD23003E331B789B07A2D5AEE720006B
:109F7000FFF750FF1022A35EC8225B4252009342BB
:109F8000BDDD23003E331B785B07ACD5B7E720006F
:109F9000FFF740FFC8231221625E5B009A4204DD96
:109FA00023003E331B781B07B7D5002DC0D1327874
:109FB000002A14D02100270001254A310B883E37A2
:109FC00001339BB20B803878AC46054055D01D2B31
:109FD00005D963469843002338700B803370200006
:109FE0000DF047F8294A0723904244DD2000FFF78F
:109FF00011FF0E23E25E264E52420323B2423ADBA9
:10A00000C8252000FFF706FF0E23E25EAD00524296
:10A010000423AA422FDC2000FFF7FCFE1023E25E9F
:10A0200002235242B24226DB2000FFF7F3FE102348
:10A03000E25E01235242AA421DDC2000FFF7EAFE45
:10A040001223E25E0523B24215DB2000FFF7E2FE99
:10A050001223E25E0623AA420DDC00230BE0042B50
:10A06000A5D122003E321178033B0B43137000232D
:10A070004A3423800B331800F8BD092BAFD9013ABD
:10A080000D803270ABE7C04670FEFFFFFF7002002C
:10A09000E0FCFFFF70B5C369C1681A68451D8AB04E
:10A0A0000400EB7F114255D0002B58D1EB7F082BD9
:10A0B0000DD90122A379134209D11343A371A188B9
:10A0C000130006A80CF0D2FEFFF7E0FC2062EB7F45
:10A0D000012B23D80123A2791A421FD00025A18881
:10A0E000A571022202A80CF0C1FEA31DDE7F012E85
:10A0F00014D1FFF7CBFC2B00226A801A9941009003
:10A100000191019BA188AB4203D1174B009A9A425F
:10A1100027D90123042206A80CF0A8FE0322A37964
:10A120001340012B14D1FFF7B1FC0023226A801ADF
:10A130009941994202D10D4B984209D90223A27943
:10A14000A1881343A3710522012306A80CF08EFEFB
:10A150000AB070BD0B2BA9D80133EB77A6E7013B02
:10A16000FBE733000322D6E7E7030000DB0500002E
:10A1700010B50400034B08330360FFF7BDFC20005B
:10A1800010BDC046D0AA0200F0B5070000250E00A1
:10A1900085B002930AAB1B7808370393104B040079
:10A1A00008330360019285808571290018223800E8
:10A1B00010F0DFFA039A3100380010F000F96B4616
:10A1C0006A469B88127AA380A31DE671DA77631D25
:10A1D00025622000DD77FFF771FC200005B0F0BD9F
:10A1E000D0AA020010B50400034B08330360FFF748
:10A1F000B9F9200010BDC04640AB02007FB5150084
:10A200000F226A4404001E001170002D16D0002B8E
:10A2100014DD012301890093C06B00F073FF002857
:10A2200002D0074804B070BD0090218933002A0095
:10A23000E06B00F01DFF0028F4D0F2E70148F1E7E1
:10A240000EFCFFFF17FCFFFF002330B585B003AC09
:10A25000217001890093050001332200C06B00F0DA
:10A2600051FF002802D0094805B030BD208029895F
:10A27000009002232200E86B00F0FAFE0028F2D1E1
:10A28000237860781B02184300B2EDE70EFCFFFF55
:10A2900013B56B46DC1D0023220023700133FFF74A
:10A2A000ADFF002801D1207816BD0148FCE7C0466B
:10A2B0000EFCFFFFD0B504000CF0B5FFE268A36907
:10A2C000981A0AF02BF806000F002369E069C01AFB
:10A2D0000AF024F832003B000AF06EFB0022104B1B
:10A2E00009F02CFA0F4A104B08F01EFE0AF0A2F8F3
:10A2F0000021041C07F0C8FA002804D0201C0B49D8
:10A3000007F0E4FB041C201C0AF042F802000B00DA
:10A310000020074909F084FC09F0CAFFD0BDC046FF
:10A3200000806640EA2E4454FB2109400000B443FB
:10A3300000807640F0B5050085B0006C0CF036FF6B
:10A34000061C286C0CF029FF0221071C28000CF0C9
:10A350009BFF0221039028000CF0A8FF08F03EFAB2
:10A360000221041C28000CF0B3FF08F037FA051C8A
:10A37000301C0AF0E3FA0290301C0AF0A1FA0190B6
:10A38000381C0AF0DBFA061C381C0AF099FA071C84
:10A39000039808F023FA391C07F00AFF311C071C48
:10A3A000201C07F005FF029907F002FF011C381C72
:10A3B00007F08CFB311C071C281C07F0F9FE0199E3
:10A3C00007F0F6FE011C381C07F080FB0299061C02
:10A3D000281C07F0EDFE0199051C201C07F0E8FE83
:10A3E000011C281C08F016F8311C0AF06BFB0D4903
:10A3F00007F0DEFE09F0CCFF0B4A0C4B08F094FD91
:10A400000AF018F80021041C07F03EFA002804D0D6
:10A41000201C044907F05AFB041C201C08F0BEF95C
:10A4200005B0F0BD0000B443EA2E4454FB211940AE
:10A4300070B50022102104000CF0E7FE1B4D00282F
:10A440002DD1032608212000FFF722FFA84226D0A5
:10A45000304226D1FA216389890059435023144A96
:10A46000D518D058884204D3D518083B18000830B6
:10A47000F7D1FA212868890007F040F8A02260810E
:10A48000112120000CF0C1FE002808D101222B79F7
:10A4900010211A4320000CF0B8FE002800D0034819
:10A4A00070BD6420FFF7E8F8CCE7C0460EFCFFFF64
:10A4B000E8AA02007FB50425837904002B4218D155
:10A4C00002260CF0B0FEA379A188B3432B43A371FD
:10A4D0000622012368460CF0C9FCA0790300304035
:10A4E000AB43A37143425841034B4042184004B070
:10A4F00070BD0248FBE7C04614FCFFFF15FCFFFFE0
:10A5000010B5837904005A070DD49B0701D4FFF7D7
:10A51000D1FF236C2000002B02D0FFF70BFF10BDF2
:10A52000FFF7C8FEFBE70148F9E7C04615FCFFFF4F
:10A5300070B5466C86B001AC050001916260A36005
:10A54000002E0CD00B4905A8FFF7E4FA0C232200DB
:10A5500005A930000DF048FC05A80CF0E1FB2B002C
:10A560000C3307CC07C30223AA791343AB7106B09F
:10A5700070BDC046EDB80200642330B5040002810E
:10A58000438185B08180FFF753FF0222A379606C7D
:10A590009343A371002813D00C490DF0ECFB051E6A
:10A5A0000ED001000C22103101A810F0C6F82000D6
:10A5B0000199029A039BFFF7BBFF2800FFF7BEF942
:10A5C0000123A2791343A37105B030BDEDB8020099
:10A5D000F7B5009308AB1B880400019309AB1D88F5
:10A5E00000230F0016000D4A838008328371026039
:10A5F000C360036143618361C36103621D21243031
:10A600000CF0F6FD009BE7632664290020006364DC
:10A61000019AFFF7B1FF2000FEBDC04640AB02002B
:10A6200082B0F0B50400A5B064202B932A920FF0FD
:10A6300050FF04220C2109A802F0DAFF2422CC49A1
:10A640001BA810F07AF8052206A811000EF09AFC5B
:10A65000C84907A803F078F8A06800F081FBA56856
:10A66000C54918A8FFF756FA782218A9280000F063
:10A67000A5FC18A80CF054FB6E256420013D0FF0DA
:10A6800028FF002DF9D1A06800F06AFBA0680CF04B
:10A69000BFFF012160680CF000FD01210700606828
:10A6A0000CF00EFD06000A200FF013FF0022B34B42
:10A6B00003929F4210DB013203923A00C8320BDB57
:10A6C000C822042192000391974205DC03220392E1
:10A6D000C82F01DC013A039200279E420CDB3300B5
:10A6E0000137C83308DBC82303379B009E4203DCD5
:10A6F000013FC82E00DC013F06A80EF03AFC002600
:10A70000032373431BA9CA189078002805D0C95C9D
:10A710005278FF2306A802F0ABFF01360C2EEFD1D2
:10A720006B463AB20C21595E06A8FF2302F0A0FF47
:10A730000023A06800931A00743006A90EF029FCCB
:10A74000002304930323049A039853431BAA995CA0
:10A75000814237D1D31805935B78BB4232D1059B38
:10A760009E78002E2ED1310020680CF08DFD08F06F
:10A7700035F83200031C290009A80DF0BEFD310098
:10A7800020680CF093FD08F029F80122031C290031
:10A7900009A80DF0B2FD310020680CF099FD08F019
:10A7A0001DF82900031C022209A80DF0A6FDFE23B6
:10A7B00003229B05290009A80DF09FFD0123059A9E
:10A7C000ED189370049B013304930C2BBAD16420D1
:10A7D0000FF07FFE0B2D00DC5BE709A80DF079FD83
:10A7E000012201000CA802F003FF002509A80DF0CA
:10A7F00070FDA8423CDD2900002209A80DF06BFD88
:10A800000022061C290009A80DF065FD011C301C62
:10A8100007F0CEFC2900061C012209A80DF05BFD03
:10A820000122071C290009A80DF055FD011C381C48
:10A8300007F0BEFC311C07F049F92900061C022272
:10A8400009A80DF048FD02222900071C09A80DF0F7
:10A8500042FD011C381C07F0ABFC311C07F036F937
:10A860002900031C00220CA80DF047FD0135BDE7AF
:10A8700009AA1100012318A80DF059FD18A90FA865
:10A880000DF0B2FD18A80DF049FD0CAA09A912A8F7
:10A8900001230DF04CFD002312AA0FA915A80DF0FD
:10A8A00046FD002215A811000DF015FD0022061C22
:10A8B000012115A80DF00FFD0022051C022115A88D
:10A8C0000DF009FDFC21071C8905301C07F070FC08
:10A8D00007F064FFFC21060018908905281C07F08A
:10A8E00067FC07F05BFFFC21050019908905381C07
:10A8F00007F05EFC07F052FF2A00030031001A90B7
:10A900002068FFF715FEA0680CF082FE07A908A8D2
:10A91000A5680EF026FB0022194B009208A90193AE
:10A920002800130000F0BAFA08A80EF00DFBFA2078
:10A9300080000FF0CEFDA0680CF06AFE15A80DF0A7
:10A94000EDFC12A80DF0EAFC0FA80DF0E7FC0CA836
:10A950000DF0E4FC07A80EF0F7FA06A80EF0F4FAE2
:10A9600009A80DF0DBFC25B0F0BC08BC02B018470C
:10A97000F8B802001CB9020061B90200E0FCFFFF58
:10A98000DC050000F7B583601D4B05001F68016002
:10A990004260002F31D02820FEF7B0FF04001030B5
:10A9A0000CF05AFA174B18202360FEF7A7FF00227D
:10A9B0000600154B01920560083200210C3000930F
:10A9C0000FF0D7FE08226946301D0FF0B6FE0F4B80
:10A9D00000227361C223A3803B68E260A66022620A
:10A9E00062625B68210038009847002805D020008B
:10A9F0000CF04CF92000FEF7A1FF2800FEBDC04678
:10AA0000F42600200500060021A60100E9720200DC
:10AA1000F0B5040085B0637A9C46002B04D1200079
:10AA20000CF08DFC05B0F0BDA37A266F01931023C6
:10AA3000019AF35600259B1801229A402900F368D9
:10AA400003920293029BAB4231DDB368019A6B43E0
:10AA50009B1872695B00E77AD3181A785878E37903
:10AA6000012F14D15F1E3F1A10003A005B004343D0
:10AA7000606F8218D3189B79634500DD6346627B63
:10AA80001A4202D00123AB4019430135DAE7022F05
:10AA900005D15F1EBA1A277A013F381AE6E7032F5D
:10AAA000E4D1277A013FBF1A02003800DEE7112304
:10AAB000C943F356606C994023691940039B1943BD
:10AAC0000FF0C7FDA27B072AACD8637B0C495B0063
:10AAD0006373531CDBB290004158A373022A03D85E
:10AAE00008000FF0EBFC96E7064B200023630023E1
:10AAF0006363054BE462236414300FF07DFB91E740
:10AB000058AB020011AA01002973020010B504001D
:10AB1000044B03600FF068FB200005F04BFF2000A2
:10AB200010BDC046E4AF020010B504000E4B083360
:10AB30000360FEF7E1FF200074300EF005FA2000FC
:10AB400060300EF001FA200058300CF0E9F82000D7
:10AB500050300CF0E5F82000044B14306361FFF72F
:10AB6000D5FF200010BDC04678AB0200F8AF020050
:10AB7000F8B500250400324B8580083303608571E9
:10AB8000143016000F0005F0FFFE20002D4BE5628B
:10AB9000636125645030FEF7F7FF20005830FEF760
:10ABA000F3FF2000603002F05DFD20000423F25E20
:10ABB00033682667590009B274300EF0E3F9336840
:10ABC000226FE37173680126237210236581A780C9
:10ABD0002561D35691685918994204DD3000984098
:10ABE00001330543F8E711230120D356D1685918E2
:10ABF000994206DD02009A40266901333243226100
:10AC0000F6E71420FEF77AFE226900212A43012389
:10AC1000060006F057F9FF23220063720133A38177
:10AC2000002348326664A37320001370A366FEF706
:10AC300045FF0123A27920001343A371F8BDC0464C
:10AC400078AB0200F8AF0200F0B5437A85B004009B
:10AC5000002B04D120000CF072FB05B0F0BD0122E6
:10AC6000837A11009C461023066F0025F356039249
:10AC70006344994002912900F3680193019BAB4220
:10AC80002CDDB36872696B4363445B00E77AD318C9
:10AC90001A785878E379012F10D15F1E3F1A1000FF
:10ACA0003A005B004343606F8218D3189B79002BF6
:10ACB00002D0039BAB4019430135DFE7022F05D1DA
:10ACC0005F1EBA1A277A013F381AEAE7032FE8D144
:10ACD000277A013FBF1A02003800E2E71123C94377
:10ACE000F356606C994023691940029B19430FF099
:10ACF000B0FC667AB31EDBB2FC2B14D8FEF78CFED8
:10AD00000B4B0500236300230A4863630A4BFF21B2
:10AD1000E4622364704306F07BFC29004143200079
:10AD200014300FF069FA637A012B00D995E791E7A7
:10AD30003F730200B6030000297302001FB5012310
:10AD400081881A0068460CF091F8012303491A0023
:10AD500068460CF08BF805B000BDC046FE0300004D
:10AD60001FB5030048331A780400002A0DD00022D2
:10AD70001A70012381881A0068460CF077F80123C5
:10AD800004491A0068460CF071F8200074300EF087
:10AD9000F0F81FBDFF03000010B548300378002B0A
:10ADA00006D00378012B03D0012102480BF0E4FE0A
:10ADB00010BDC046FF03000010B5012104000620AD
:10ADC0000BF0DAFE064B984208D148342378002B6A
:10ADD00004D02378012B01D020BFF7E710BDC04677
:10ADE00016FCFFFF70B50600141E19DB0500483580
:10ADF0002B78002B02D02B78012B13D100233000AD
:10AE00001A00743002F0F0FC002C07D033004A33F3
:10AE10001C80002407234C3634802B70200070BD2A
:10AE2000014CFBE7014CF9E717FCFFFF12FCFFFFA9
:10AE3000F8B517000A68050052880B00012A09D1ED
:10AE4000002118000BF0FBFF002201002800FFF793
:10AE5000C9FFF8BD002F19DD060048363278002AF8
:10AE600002D03278012A13D12A00002428005C3253
:10AE70001900148058300BF0BDFF2B004A331F809F
:10AE800003234C352C8020003370E2E70148E0E7D3
:10AE90000148DEE717FCFFFF12FCFFFF73B5079CBC
:10AEA0000500002C1CDB060048363078002802D054
:10AEB0003078012816D106981BB2C0B20090280045
:10AEC00012B274300EF065F8002C07D02B004A3314
:10AED0001C80002407234C352C803370200076BD65
:10AEE000014CFBE7014CF9E717FCFFFF12FCFFFFE9
:10AEF000F7B505000E00171E26DDFFF74DFF2B00EE
:10AF000048331C78E4B2002C20D133685B88012BD5
:10AF100009D1210030000BF092FF2200010028002F
:10AF2000FFF760FFFEBD310001A80BF05BFF3A00A8
:10AF300001A92800FFF77CFF01A80BF0F1FE280013
:10AF4000FFF73AFF2000EDE70148EBE70148E9E7AA
:10AF500017FCFFFF11FCFFFFF0B587B00D9C06004A
:10AF60000F0002920393002C20DBFFF715FF330044
:10AF700048331D78EDB2002D1AD1390005A80DF027
:10AF8000F0FF0C9B01940093029A039B05A93000EB
:10AF9000FFF784FF05A80DF0D7FF002C03D0300089
:10AFA000FFF70AFF2C00200007B0F0BD014CFAE7C4
:10AFB000014CF8E717FCFFFF11FCFFFFF8B5040098
:10AFC000171E1DDD060048363378002B02D033787B
:10AFD000012B17D12200E3795632013B1370230075
:10AFE0000025200054331D8050300BF003FF230058
:10AFF0004A331F80022328004C3425803370F8BD6B
:10B000000148FCE70148FAE717FCFFFF12FCFFFFCD
:10B01000F7B505000F00161E18DDFFF7BDFE2B006B
:10B0200048331C78E4B2002C12D1390001A80BF08F
:10B03000D9FE320001A92800FFF7C0FF01A80BF0DC
:10B040006FFE2800FFF7B8FE2000FEBD0148FCE7B8
:10B050000148FAE717FCFFFF11FCFFFFFF2902D8A8
:10B060004172002070470148FCE7C04617FCFFFF13
:10B07000F0B51F0085B00AAB1B7804000393009362
:10B080003B000D0016000FF018F8002833D0237D88
:10B09000082B2DD8236800221900FC318A62A021D8
:10B0A000C9005A50154905205A500138C046C046BB
:10B0B000C046C046C046C046C046C046C046C04660
:10B0C000C046C046F1D1236801325A50A021043253
:10B0D000C9005A5006F0A6F8039B320000932900DD
:10B0E0003B0020000EF0E9FF237D01332375CCE700
:10B0F000034805B0F0BD2075FBE7C046FC0F00001B
:10B100000EFCFFFFF0B51F0085B00AAB1B780400F2
:10B11000039300933B000D0016000EF0B6FF0028CD
:10B1200033D0237D082B2DD8236800221900FC3151
:10B130008A62A021C9005A50154905205A50013889
:10B14000C046C046C046C046C046C046C046C046CF
:10B15000C046C046C046C046F1D1236801325A50AD
:10B16000A0210432C9005A5006F05CF8039B32005B
:10B17000009329003B0020000EF087FF237D013360
:10B180002375CCE7034805B0F0BD2075FBE7C0464A
:10B19000FC0F00000EFCFFFFF8B50D1E30D000269E
:10B1A0000227C468002C28D0AA88A38853403B42B9
:10B1B00004D13A4204D1AB883B4219D0646AF1E72A
:10B1C000A968A0680DF074F80028F4D02B88002B33
:10B1D00002D022889A42F1D16B88002B02D062887B
:10B1E0009A42EBD1A288074B01361343A380E5E7CF
:10B1F000A368AA689342E1D1E8E72000002E00DCB2
:10B200000148F8BD0080FFFF17FCFFFFF0B5060006
:10B2100085B00D1E59D00127C468002C22D0022110
:10B22000AA8800230A4202D0A3885B083B40226818
:10B2300029688A4210D1A068A968002B0AD00DF0B5
:10B2400037F8002808D0A3881AB2002A06DB204865
:10B2500005B0F0BD8842F6D0646ADEE75B045B0CA3
:10B26000A380F4E7F0682A88002807D1F56001235D
:10B27000184968460BF0FAFD0020E9E701000300D9
:10B280001C88944206D25C6A1900002C0DD0230061
:10B29000F6E723001C88944207D15F886C88A74298
:10B2A00003D25C6A1900002CF3D1814209D10B88CA
:10B2B0009A4204D305D148886B88984201D96962C3
:10B2C000D4E74B6A6B624D62D1E70348C0E7C046E2
:10B2D00016FCFFFFFD03000017FCFFFF064B10B537
:10B2E0001A00040008322C33026043600430FEF779
:10B2F00039F9200010BDC04690AB020008B4024BE3
:10B300009C46043808BC6047DDB2010008B4024B1B
:10B310009C46043808BC6047517702000C4A002361
:10B3200011002C32083110B5038183724260C36072
:10B33000036143614383016004000430FEF704F9B4
:10B34000044B1A68002A00D11C60200010BDC046C2
:10B3500090AB0200F4260020F7B50E000125C4686A
:10B360000192002C36D0238832889A4201D0002BDB
:10B3700023D1638872889A4201D0002B1DD1FEF739
:10B3800057F80123002806D0C022A3881340C03BF1
:10B390005A425341DBB2019A934219D1A7883BB27A
:10B3A000002B15DB10223100A0180FF0C6F9402346
:10B3B0001F4204D020000CF0D4F9646AD1E7FEF7F4
:10B3C00037F80028F6D021000348FEF7E1F9F4E74A
:10B3D0000025F2E72800FEBD6377020008B4024BA7
:10B3E0009C46043808BC6047EB780200F0B587B093
:10B3F00001930EAB1B88060003930D9B0D00009379
:10B40000019B02920C9F002B3DD0002F02D1009B8C
:10B41000DB0738D52820FEF771FA040010300BF056
:10B420001BFD6B461B89258063801820FEF766FA9A
:10B430000500009B08220593019B002103600C304E
:10B4400004970FF096F9082204A9281D0FF075F94A
:10B450000E4B02226B6100230399E3602362636257
:10B4600033680A43A560A2805B68210030009847DA
:10B47000002806D020000BF009FC2000FEF75EFA41
:10B48000034807B0F0BD0348FBE7C046257902003A
:10B4900016FCFFFF17FCFFFFF0B5040016000025A7
:10B4A0008380164A164B857102602181468105739F
:10B4B000186889B08C46A8421DD0124A059504929E
:10B4C000C02202926A4604AB82CB82C223002A00C9
:10B4D0006146FFF78BFFC022094B0A4918680292A8
:10B4E0006A46069106AB079582CB82C223002A00EA
:10B4F0003100FFF77BFF200009B0F0BDD4AB0200A4
:10B50000F42600204F7A020030B500240373012393
:10B51000034D84710560818082734373846030BD04
:10B52000ECAB020070B5040000250C4B0E00083394
:10B53000858085710360210018300CF040FB2000ED
:10B54000210020300CF06EFB054BA680E5802572B3
:10B55000E5602561656120001C6070BDFCAB0200E8
:10B56000FC260020072906D80020044B044A59561F
:10B57000044BD15070470448FCE7C04677B902003D
:10B58000001000400C05000017FCFFFF10B50C0078
:10B590000BF080FA002806D1642C06D8A123044AB7
:10B5A000DB00D45010BD0348FCE70348FAE7C0466F
:10B5B0000010004016FCFFFF17FCFFFF8379DB073C
:10B5C00002D5C160002070470048FCE716FCFFFF71
:10B5D0008379DB0701D5C06870470148FCE7C046A6
:10B5E00016FCFFFF70B545690400002D22D0037AD8
:10B5F000032B21D8FFF7ECFFA8622C20FEF77EF981
:10B600002C22002105000FF0B4F8002263695A6271
:10B610002369934208D1636923610020237A65611D
:10B620000133237270BD13005A6A002AFBD162698C
:10B630005A62F2E70148F5E70148F3E717FCFFFF1C
:10B6400013FCFFFF144B70B55A68144C002A03D04A
:10B6500000225A600132A2601A69002A17D0002124
:10B6600019618023DB000E4DE3582868012B0FD1B0
:10B67000A923DB00E1584942FFF7A0FF2868FFF744
:10B68000B1FF2B685A69074BE2500123A36070BDDC
:10B69000FFF794FFF9E7C046FC100040001000409F
:10B6A000FC2600200405000010B504000BF0F2F9A0
:10B6B000002818D10122A1790300114211D00221E2
:10B6C0000A4BD9670A4B0B4958610A615A69002A2B
:10B6D000FCD02000FDF746FF0122A3799343A3711C
:10B6E0000023180010BD044BFBE7C04604E100E056
:10B6F000FC1000400010004016FCFFFF70B5050074
:10B700000C000BF0C7F9002804D1034A034BEC717D
:10B71000D45070BD0248FCE7001000402405000032
:10B7200016FCFFFFF8B5837905000020DB076AD41B
:10B730000BF0B0F9002867D16E69002E08D12C30CB
:10B74000FEF7DCF804002C2231000FF012F86C61D7
:10B750006B69002B5AD000222D4B01215A608022A8
:10B76000D20511605A68002AFCD00622294B2A4CC7
:10B770009A562A4B0721E2502800FFF707FFA22321
:10B780000026DB00E650264A264B2800E250E979E5
:10B79000FFF7B4FF01220821234B2448E65004336D
:10B7A000E250234B234FE1500433E0500223224860
:10B7B000235022482750224F043827501827214869
:10B7C00027506F6920482750C120800021501F4911
:10B7D0008538FF380B500B608021890060580E338C
:10B7E000034363501A4B5E6062605A68002AFCD0C3
:10B7F000002601271E612800A760FDF7A5FE300086
:10B80000AB791F43AF71F8BD1248FCE71248FAE765
:10B81000FC00004077B90200001000400C05000059
:10B82000746962751C0500002C05000020000402EC
:10B8300014050000FFFF0000340500003C05000077
:10B8400021100100540500000405000000E100E0A3
:10B85000FC10004016FCFFFF13FCFFFF0300006913
:10B86000002809D00221054AD167426A1A611A7A72
:10B87000013A1A72024B19607047C04604E100E0B9
:10B8800000E100E070B504000D000BF003F90028A2
:10B890003AD1002D3AD02B78232B37D802221C4BDB
:10B8A0001C49DA671C4B013A58610A615A69002A3F
:10B8B000FCD00020194A8D5058600130086058684B
:10B8C0000028FCD001208860002018611869002839
:10B8D000FCD06069885000225A6101320A615A69BD
:10B8E000002AFCD000225A6001324A605A68002ABD
:10B8F000FCD00020186101238B60C0210222084B7C
:10B9000049005A501A6070BD0648FCE70648FAE73D
:10B9100004E100E000100040FC10004004050000BD
:10B9200000E100E016FCFFFF17FCFFFF37B54C6895
:10B930000500002C04D10C490BF0C2FA28003EBDD2
:10B94000636A01A84B602278211D033AA36A0BF0B9
:10B95000E3FA2000FDF7F2FF01A928000BF0B0FA8E
:10B9600001A80BF0A6FAE9E7F826002030B505009B
:10B970008DB0002912D0232A10D801ACD31C00208E
:10B9800023700123A07002A86370E3700EF0D5FE4F
:10B9900021002868FFF776FF0DB030BD0048FBE7B7
:10B9A00017FCFFFFF0B5224B85B01B7804005B0746
:10B9B00039D50EF0CAFB0025236CC6B20227DF5F23
:10B9C000AF420EDD200029B240300BF038FA86423B
:10B9D00005D1012320211A0068460BF047FA0135F2
:10B9E000EEE7250023004E3528884C3319780130C6
:10B9F00005F0F4FE230050331B8889B28B4214D02B
:10BA00002B88A26CD654636C2980002B0BDB2A8810
:10BA1000934208D1012302225B4263640233202156
:10BA200068460BF023FA05B0F0BD01230322F6E7C8
:10BA3000FC2900200121024A13788B4313707047C0
:10BA4000FC2900200223024A11780B43137070472F
:10BA5000FC2900200221024A13788B43137070479F
:10BA6000FC29002010B5002903DB024B19600EF001
:10BA700091FB10BD0027002070B504001E0004AB30
:10BA80001D7804F04BFF20000E4B40302360FEF782
:10BA90007BF8230001364C33013522001E701D73E4
:10BAA0000023E1214E32A3646365138053809381A8
:10BAB000D381013B200063644902FFF7D3FF2000DC
:10BAC00070BDC04638AA020070B51500012A0BD01F
:10BAD00040300BF08FF90024022D03D101212020EA
:10BAE0000BF04AF8200070BD004CFBE717FCFFFF8D
:10BAF00010B5094A012311780C001C400AD10B43F0
:10BB0000137003004E331B8850300380FFF792FF01
:10BB1000200010BD0148FCE7FC2900200DFCFFFFC0
:10BB2000F0B5050007005C355A372B883A8885B098
:10BB300004009A421ED0104B1B781B071AD52B8885
:10BB4000426DD15C0EF005FB23002888583319782C
:10BB5000013005F043FE3B888EB2B34209D107495C
:10BB60000123022268460BF081F9012120000CF02C
:10BB7000AEF82E8005B0F0BDFC290020FF030000C8
:10BB800070B5114D04002B781B0705D501210CF071
:10BB90009EF8606DFDF7D2FE08262B78B3432B701C
:10BBA000230058331878FDF7A9FE6065002809D0F6
:10BBB000230000205A3318802B785C341E432080E9
:10BBC0002E7070BD0148FCE7FC29002013FCFFFF2C
:10BBD00070B50B4B04001B780D009B070ED4FFF7CC
:10BBE00031FF2300013558331D702000FFF7C8FFD7
:10BBF00005002000FFF72EFF280070BD014DFBE778
:10BC0000FC2900200DFCFFFF73B50D0006A9040000
:10BC100009780430002A01D1DE070ED5002D0CD0A2
:10BC200018264E430C34A41962600122A360044B11
:10BC30002560636105F048FA73BD0022FAE7C0464B
:10BC40004F7C0200F0B58BB00593030007000400A1
:10BC50000025583306930433039104925A3707930F
:10BC6000049B9D4211DA069B3E881978701C05F0F2
:10BC7000B5FD079B89B21B888B4206D0039B626D82
:10BC80005B5D013593553980EAE7059B012B03D0B5
:10BC900002210748FDF71AFD012320000093054A01
:10BCA00000232100FFF7B0FF28000BB0F0BDC04615
:10BCB000FF03000021BB0100F7B5184C1F002378DB
:10BCC0000500019116009B0724D4002A24DD0029D9
:10BCD00022D0FFF7B7FE23781B0714D50024019B61
:10BCE000321B191928003B00FFF7ACFF390024185C
:10BCF00028000BF0DCFF002F01D0A642EFDC28006B
:10BD0000FFF7A8FE04E02800FFF73AFF041EE5D085
:10BD10002000FEBD024CFBE7024CF9E7FC290020A5
:10BD20000DFCFFFF17FCFFFFF0B5164E85B0337812
:10BD300005005B0705D500210BF0C9FFA86CFDF7D6
:10BD4000FDFD04273378BB4333702B004C33187848
:10BD5000FDF7D4FDA864002811D02B0000244E3339
:10BD60001C805C80337828001F433770064A00949B
:10BD700023002900FFF748FF200005B0F0BD03486D
:10BD8000FBE7C046FC290020A5B9010013FCFFFF1A
:10BD9000F0B56E4D8BB002AF7B602B78B8600C00B5
:10BDA0001600DA0702D5FDF7EFFE09E05B070BD4BA
:10BDB0000800FFF7B9FF011E06D0B8680AF0CDFFF2
:10BDC000BD46B86809B0F0BD01232A7813432B7033
:10BDD000230050331B883B61FB6001235B427B6186
:10BDE00023004E333B601D88FB68ADB29D4217D0E7
:10BDF0007B69013369D10025A36CFA689B5C3B60C9
:10BE0000336802229B5EAB422CDD29B230000BF07E
:10BE100016F83B68984201D1FB687B610135EFE77A
:10BE20007B68012B2FD17B6901334ED122004E322A
:10BE30001388AB42FCD0A36C5B5D7B600023FB608E
:10BE4000336802229B5EFA68934214DD0C23F95E8C
:10BE500030000AF0F4FF7B68984200D17D61FB68F6
:10BE60000133ECE72300F8684C331978013005F012
:10BE7000B5FCF960B4E723004C33681C197805F071
:10BE8000ADFC0D00CFE77B68022B1ED17B6901332F
:10BE90001BD11C25310078190AF0A4FF7A687919A2
:10BEA0002000FFF711FE78190AF03AFF3B68781975
:10BEB0001B88013B7B61FDF767FE2000791940304C
:10BEC0000AF098FF78190AF02BFF7B69002B38DB0A
:10BED0006B467B6023004C331E783A697B699D1A60
:10BEE000934202DA7B69B51AED182B0069460833D4
:10BEF000DB08DB00CB1A9D4602AB6A1C0021180050
:10BF0000FB600EF036FC32002600BB8A2000019355
:10BF10003B6950360093FB68A16C0BF0A3FE3088A0
:10BF20004C3401302178401905F058FC3180FFF77E
:10BF300081FD2AB2F968B868FDF7FCFD7B689D4673
:10BF40003EE7FFF777FDB8682DE7C046FC290020E3
:10BF5000012310B5094A14781C420CD123431370F5
:10BF6000030001314C331970FFF7DEFE0400FFF7C8
:10BF700061FD200010BD024CFBE7C046FC290020FB
:10BF80000DFCFFFFF7B580277F053D697C6908221E
:10BF9000113C6C430600210068460EF0CEFB104BAE
:10BFA000009A9A4219D000930023019379693000D6
:10BFB000133969430BF09AFE019A009930000BF097
:10BFC000ADFE210030000BF091FE7969AB0813390A
:10BFD0006943220030000BF093FE0198FEBDC0467D
:10BFE000FECA0000F0B50D00A9B00D92002130226C
:10BFF000060010A80B930EF0BCFB28000EF0F9FB16
:10C00000431C0C93102B00D9B5E00B9B202B00D9BF
:10C01000B1E0290030000BF0AEFE071E50D1290020
:10C020000C9A10A80EF089FB0D990B9A14A80EF02B
:10C0300084FB80235B051A695F690C92113F7A4388
:10C0400030005D690B92FFF79DFF30220021040054
:10C050001CA80EF08EFB290000270C9B13395943B6
:10C0600030000BF043FE0D9730257D430B9B0833CA
:10C07000ED18A74242DA290030221CA80EF05DFB21
:10C0800010A91CA80EF0ABFB002827D13C493000BA
:10C0900022000E910F940BF041FE6A46099513ABF6
:10C0A00023CB23C223CB23C223CB23C23000129B3A
:10C0B0001099119A0BF040FE01230D930137D3E73D
:10C0C00010300B9A0D990EF029FB04003800FDF793
:10C0D00035FC002CA3D1200029B0F0BD6A4609959B
:10C0E0001FAB23CB23C223CB23C223CB23C23000DD
:10C0F0001C991D9A1E9B0BF01FFEDFE7E5433023C2
:10C10000ED1725405D430B9B08355D190D9B002BFA
:10C110001DD10C9B3021981E05F0F0F9A0422CD0C7
:10C1200017490134300022000E910F940BF0F6FDF8
:10C130006A46099513AB23CB23C223CB23C223CB5F
:10C1400023C230001099119A129B0BF0F5FD0B9948
:10C1500030000BF0CBFD80235B0559690C230C9A52
:10C16000133963434A430233110030000B9A0BF03A
:10C17000C7FD0024AFE7034CADE7034CABE7C04677
:10C18000FECA000017FCFFFF13FCFFFF70B50400A0
:10C19000A280FA22002308000C4992000831216095
:10C1A000A3716061E260A360638209490BF0E3FD63
:10C1B000051E09D0010020001031022212300EF0BD
:10C1C000BCFA2800FDF7BAFB200070BD14AC0200D9
:10C1D0006FB9020030B50225837987B004002B4285
:10C1E00004D1FDF7B1F9A3791D43A57120000BF02F
:10C1F0000CFE00281CD06B46DD1C28000BF0FCFD5B
:10C200002B78002B17D001A80BF0F4FD0321019A25
:10C21000D3170B409B189B102382FDF737FCE36874
:10C22000A18818180123A0601A0002A80AF01EFEB7
:10C23000002007B030BD0122064B1A60064A516843
:10C240000029FCD000215160044A126801920122A9
:10C250005A60DBE700C00040FCC0004008C5004059
:10C26000022802D10122014B1A707047FD290020DB
:10C2700070B5064C05002378002B04D1044801F06A
:10C2800083FC01232370280070BDC046FE290020D6
:10C2900061C2010070B50C000AF0FCFB002810D050
:10C2A0000023144DA40A2B7020000BF0C2FD0028BF
:10C2B00003D00A200EF00DF9F6E72B78002BFCD006
:10C2C00070BD02210C4B0D4A99508021C900080015
:10C2D0005D58002DFCD0A121C9005C5019580029DF
:10C2E000FCD0002199508021C9005A58002AFCD066
:10C2F000E6E7C046FD29002000E0014004050000FB
:10C30000F8B50C0015001E000AF0C4FB002811D07F
:10C310000023174F3B703200290020000BF087FDEF
:10C32000002803D00A200EF0D4F8F4E73B78002B65
:10C33000FCD0F8BD01210F480F4B844619508021D5
:10C34000C9005A58002AFCD080270022FF009642DC
:10C3500007DD910068586050D9590029FCD001329E
:10C36000F5E7002261465A50DA59002AFCD0E0E78E
:10C37000FD2900200405000000E0014010B5040084
:10C38000054B083303601C300AF0CAFC200018304B
:10C390000AF0C6FC200010BD2CAC0200FF23F0B553
:10C3A0002C4D8DB02B70002304006946008800934B
:10C3B00003F05CFB002802D16B469B782B70264E65
:10C3C0003368DB68002B07D1002320881A0019008E
:10C3D0000BF033FD0DB0F0BD2B78032BF4D81F49C3
:10C3E00001A8FDF797FB336801A9DE6804A80AF0ED
:10C3F000F9FC04A930000BF0F1FC0027060004A8AA
:10C400000AF08EFCBE421ED031002022103104A85A
:10C410000EF093F93000FDF791FA297804ABC900CA
:10C420005918082202A80EF088F920880123082252
:10C4300002A90BF002FD0137002804D12088084A28
:10C440000C210BF0F8FC01A80AF06AFC002FBBD00D
:10C45000C0E7C046F1210020102700207FB902006C
:10C46000FFFF0000F0B5837991B004005B071BD596
:10C47000FDF70CFB00232269801A9941994203D1F0
:10C48000F423FF3398420FD9A068002808D0364B18
:10C490001D880CF01DFE036815221B6A29009847B1
:10C4A0000422A3799343A371A3799B0759D52F4DF8
:10C4B0002B68DB68002B50D02D4B1B78032B4CD8FE
:10C4C000294B2C491B8804A80193FDF723FB2B68FB
:10C4D00004A9DE6808A80AF085FC08A930000BF062
:10C4E0007DFC070008A80AF01BFC02AB9E1D082378
:10C4F0003200338006A9073B01980BF0A0FC002F07
:10C5000008D039002022103108A80EF016F93800A2
:10C51000FDF714FA164B32881B7806A9DE0008AB2B
:10C520009E1930000EF0FAF8002813D0082206A950
:10C5300030000EF002F92B6804A9DD6805A80AF0A6
:10C5400051FC202308AA05A928000BF04DFC05A8E2
:10C550000AF0E6FB04A80AF0E3FB0222A379934366
:10C56000A37111B0F0BDC046A02900201027002003
:10C57000F12100207FB90200F7B5089E05001529BA
:10C5800022D8012007008F40244C27421CD0E97F8D
:10C59000CC181F2C41DC69183418A14210D8002196
:10C5A000C8B2834204D9545C701884700131F7E733
:10C5B00032789A183270EA7F9B18EB7700202CE0D3
:10C5C0000878C8540139E8E73478013CE4B2A34262
:10C5D00008D10023D9B28C42F0D9D05CF118887010
:10C5E0000133F7E7EF7F0120FF183F1B1F2F14DCFB
:10C5F0000227A01C7F423618381B0190E87F2F18B5
:10C60000BE4204D23078019FF0550136F6E7041B94
:10C61000023CEC7728000BF05CFCFEBDFC00200027
:10C62000F0B585B001930AAB1E880BAB1B78451C97
:10C6300002930EAB1B78040003930B781700037072
:10C640004B8A10224382013128000EF076F86B46A7
:10C650009B88268363836B461B7B002623776B4670
:10C6600001221B7A6761E683EB77A31CDA770C9BC8
:10C670000C256362230020000D9A28331A705E7027
:10C680009E702A0031002C300EF073F82000074B0A
:10C69000E663A3632A00310040300EF06AF8200000
:10C6A000034B2665E36405B0F0BDC046557E02002D
:10C6B000477E020070B50D000CF00AFD040003680F
:10C6C000002D09D15B699847FA208000684307492B
:10C6D00004F014FFE08070BD9B6898478542F3D258
:10C6E000236820009B6898470500EDE77102000071
:10C6F000F0B507001600A1B002C704006B4918A8E6
:10C700001D000BF02DFC331E03D030000EF071F82D
:10C7100083B2012204920022039202920232019219
:10C720000093320018A93800FFF77AFF2300604910
:10C73000583318A807930BF013FC2B1E03D02800C6
:10C740000EF057F883B20122049200220392029263
:10C750000232019200932A0018A90798FFF760FFA0
:10C7600023005449AC3318A808930BF0F9FB269B1F
:10C77000002B03D018000EF03CF883B20122049283
:10C78000002203920292023201920093269A18A983
:10C790000898FFF745FF631CFF33474918A8099322
:10C7A0000BF0DEFB279B002B03D018000EF021F8C6
:10C7B00083B2012204920022601C03920292023290
:10C7C00001920093279A18A9FF30FFF729FF230051
:10C7D0005533FF33394918A809930BF0C1FB289B47
:10C7E000002B03D018000EF004F883B2012204924B
:10C7F000002203920292023201920093289A18A911
:10C800000998FFF70DFF2300A933FF332C4918A81F
:10C810000A930BF0A5FB299B002B03D018000DF009
:10C82000E8FF83B201220492002218AD0392029223
:10C83000023201920093299A29000A98FFF7F0FE2C
:10C84000204B1B780B93002B2DD1079B1297139332
:10C85000089B0DAF1493631CFF331593099B1A4972
:10C8600016930A9B380017930BF07AFB1D21492081
:10C870003B7810222B707B8A12AE6B8206ABC918F4
:10C88000C0180DF05AFF06232B756B469B8D206850
:10C89000AB83AE610CF020FC036829001B6898474D
:10C8A0000122084B1A70200021B0F0BD292A000097
:10C8B000242A0000252A0000272A0000262A00003A
:10C8C000282A0000FF2900200A18000070B5002562
:10C8D00004000A4B8580083385710360C1601830FD
:10C8E000FDF752F920001C30FDF74EF9044BA5600E
:10C8F0001C60012365612000A37170BD2CAC020097
:10C9000010270020FA2130B585B00500012302224E
:10C91000890068460AF0AAFA074C2068002809D066
:10C920000BF057FB2988054B226819800223917967
:10C930000B43937105B030BD10270020A0290020C3
:10C9400010B50C0007290DD880680CF0C1FB064B10
:10C95000195703685B6C9847431E9841034B40424C
:10C96000184010BD0248FCE777B9020016FCFFFF33
:10C9700017FCFFFFF0B5A44C0D00A544040007937D
:10C980009AAB1B78A14909A804930692FDF7C2F857
:10C99000200029001C300AF02DFAC020800001F090
:10C9A000E9F80820FCF7AAFF0600002100F0D0FFFC
:10C9B00015ADA66000210C220EA80DF0DAFE2B00AA
:10C9C0000EAA83CA83C3924B2900EB600023300078
:10C9D0002B610CF066FBA0680CF07AFB08220021AA
:10C9E000059016A80DF0C5FE1420FCF787FF29005E
:10C9F0000200884B1593C8C9C8C2874B059EC36007
:10CA00000023A43603613368002B00D0F5E03060CA
:10CA1000A0680CF061FB08220021060016A80DF0AA
:10CA2000A8FE1420FCF76AFF7C4B1593030086CD0B
:10CA300086C37B4BC36000230361336B002B00D0A4
:10CA4000DDE03063A0680CF043FB08220021050004
:10CA500016A80DF08EFE1420FCF750FF714B15AE9A
:10CA60001593030086CE86C36F4B9835C3600023B1
:10CA700003612B68002B00D0C3E02860012504ABC4
:10CA80001B7C04AA2B4308A9280013740BF0D9F9C6
:10CA9000A0680CF025FB036864495B6A9847A068AE
:10CAA0000CF01EFB036862499B699847A0680CF074
:10CAB00017FB002302680093166804992A00B04708
:10CAC000049B002B0AD020000BF08CFA032805DD14
:10CAD000A0680CF005FB0368DB6898470EA80BF014
:10CAE000EFF92F2004ABC0180BF0EAF9362004ABA5
:10CAF000C0180BF0E5F93D20042504ABC0180BF07D
:10CB0000DFF90EAB0A93A06804AB5D770CF0E8FA8E
:10CB100003680AA91B699847A0680CF0D9FA036852
:10CB20000AA95B6D9847A0680CF0D2FA036800214F
:10CB3000DB6D9847A0680CF0CBFA036802219B6D6F
:10CB4000984700212000FFF7FBFE1820FCF7D6FED7
:10CB5000A16800F005FA374B374A1B68A1680393B8
:10CB6000364B15A81B6800260293354B0CAF1B688B
:10CB70000193069B1B685B190093324B12681B687C
:10CB8000FFF7B6FD3020FCF7B9FE079AA16800F068
:10CB9000A7FAA0680CF09CFA036839009B6A9847D2
:10CBA000294BBE80A0680C930CF092FA0368390000
:10CBB000DB6A98472900A0680BF0DEF9099A092181
:10CBC0009378A06852190BF0EAF9A0680CF080FA8B
:10CBD000C8210671A068FFF76DFD04AB1B7FB3424F
:10CBE00004D0A0680CF074FA0BF0B0F909A80AF0B0
:10CBF00097F895239B009D44F0BD036107E703610F
:10CC00001FE7036139E7C046ACFDFFFF72BA0200BF
:10CC1000637E020005C90100717E02009DC3010010
:10CC20007F7E0200AD7E02008D7E02004DCC0100B1
:10CC300081CC01000C2700200827002008200020BC
:10CC4000042700200C2000200800100013B5062245
:10CC50006846FCF76FFF094B1C68002C0AD0694638
:10CC600001A80AF0BFF8200001A90BF0DCF901A827
:10CC70000AF056F868460AF053F813BD1027002052
:10CC8000002373B501AE0C0031000500019302F0E2
:10CC9000EDFE002802D1B278064B1A70064B1868D8
:10CCA000002806D061426141044BC9B21D800BF0DF
:10CCB000C2F973BDF121002010270020A029002017
:10CCC000F0B5040097B0039107A89C490592FCF7C2
:10CCD00021FF9B4908A8FCF71DFF22000FAD28008B
:10CCE0001C3207A90AF095F808AA290009A80AF039
:10CCF00090F828000AF014F892490AA8FCF70AFFF5
:10CD0000A0680CF0E5F903680DAE5B699847280050
:10CD10000BF0D6F8332004ABC0180BF0D1F83A2052
:10CD200004ABC0180BF0CCF8412004ABC0180BF0DA
:10CD3000C7F88023DB00B380A0680D950CF0C8F91C
:10CD4000036831005B6D9847A0680CF0C1F9036877
:10CD500000219B6D9847A0680CF0BAF907000025E8
:10CD600006000A371F22002138000DF002FDFD7772
:10CD700030000BF0E2F80621A0680BF0FDF8099AEC
:10CD800009219378A06804320BF009F9A0680CF02F
:10CD90009FF9C8210571A068FFF78CFCA0680CF012
:10CDA00097F9FF272E000581A0680CF091F90BF090
:10CDB000CDF80398FDF7D4FF0AA90CA80AF012F8E1
:10CDC00078220CA90398FEF723F90CA809F0A8FF14
:10CDD000039920000BF042F92000FCF7B5FB049505
:10CDE000012563691D402DD057490BA800F0ACFC0C
:10CDF0000BA90CA80CF0B5F800220CA913000192A5
:10CE000000920398FEF7A8F80CA80CF09DF8049B7C
:10CE1000002B42D1043F282F41DD0025FE2F00DCEE
:10CE2000049D05980AF0D7F9002806D0012362690D
:10CE30009A43130004221343636100260BA80CF0ED
:10CE400083F8049504226369134233D0FF210398C9
:10CE5000C826FEF703F90025B600A36902229B5EEF
:10CE6000AB4222DD200029B2183009F0E8FF002390
:10CE7000010003981A00743000F0B6FC3000FCF793
:10CE8000FBFB03980AF0C4FBC820FCF7F5FB022269
:10CE90006369134209D10135DFE70437BBE7039823
:10CEA0000AF0B6FB002FBCDDBAE7FA208000FCF7E1
:10CEB000E3FB0026022365691D421CD006331D409A
:10CEC00024D022490BA800F03FFC0BA90CA80CF0C1
:10CED00048F800220CA90192009213000398FEF773
:10CEE0003BF80CA80CF030F81948FCF7C5FB0BA870
:10CEF0000CF02AF8174E6420FCF7BEFB164B0136E7
:10CF00009E4200DC6CE709F0D7FD69E713490BA8E6
:10CF100000F01AFC0BA90CA80CF023F82B002A0037
:10CF20000CA9019500950398FEF716F80CA80CF0D3
:10CF30000BF80BA80CF008F8DDE7C0468BB902002F
:10CF40009BB902009DB90200ABB90200F0B9020022
:10CF5000983A00008C0A00008B0A00002DBA0200EB
:10CF60000022594BF0B50833060003600F00100093
:10CF7000A9B0B1600BAB991801324870102AFAD1F0
:10CF80000F3A524C1A700E32105D991A0874013A19
:10CF9000FAD2997B5A7B09020A4331000C31039182
:10CFA00025211B7813AD2B7002ABC918452302A8AD
:10CFB0001B186A82180010220DF0BFFB039B64212E
:10CFC0006B610123002402AA2B77521819930933AD
:10CFD00013701DAB1C706D2302AA9B181C706E236E
:10CFE00021009B181EA80C22EC836C621C700DF0B3
:10CFF000C0FB374B0C22210023A8AB63EC630DF080
:10D00000B8FB344B02AAEB6446239B180322DA7761
:10D0100022002C650595347306AD2B1901345A7026
:10D02000102CFAD101232C482B700E33195CEA1A0C
:10D030001174013BFAD211212520AA7B6B7B1202CD
:10D040000BAC13432A78638202ABC9182270C01854
:10D0500010220DF072FB0123237505ABA3610023A1
:10D060003800A3830CF038F8036821001B68984748
:10D0700013ABDB8BB068B3820CF02EF80022036890
:10D080000092B18A039ADC680123A047B0680CF0D3
:10D0900023F807001420FCF731FC002201230400D0
:10D0A0000261069240C00832290007930DF045FB4B
:10D0B0000A4BE360BB69002B03D13000BC6129B08F
:10D0C000F0BD2361F9E7C04644AC020080BA02001B
:10D0D000557E0200477E020090BA0200BD80020029
:10D0E000F0B500260400734BDDB0083303608160A7
:10D0F000C2608680867132006F4947A80BF07EF8C7
:10D100002300143301250427089312230097049564
:10D110000193089A330047A9039602961DA8FFF7CA
:10D120007FFA3200654947A80BF068F80820220012
:10D130000097330015AF10320495019047A903966C
:10D14000029632A8FFF76CFA32005D4938000BF006
:10D1500055F82300082004221C33099339003300BA
:10D160000495019000920396099A029647A8FFF74A
:10D1700057FA3200534938000BF040F85420FCF7BE
:10D18000BDFB050020000123122104221830079066
:10D1900004930191009239000200330028000396A5
:10D1A0000296FFF73DFA2800474BA5620822EC6281
:10D1B0000AA930300A930B960DF0BFFA434B0422B4
:10D1C000AB63012329352B7009992661E661079825
:10D1D0000DF0B3FA0422079908980DF0AEFA662113
:10D1E000032304AA8918CB77BA2104AA8918CB771C
:10D1F000872104AA49008918A26ACB77911CA685C9
:10D20000CB771DAB0C9332AB0D930F9247AB320033
:10D210002F4910A80E930AF0F1FF3021452004ABEE
:10D220005B181B7812313B7004AB5B181B881139FB
:10D230007B8204ABC918C01810220DF07EFA0422BC
:10D240000CADA0683A75BD61BE830BF045FF036865
:10D2500039001B689847822204AB9B181B88543204
:10D26000238404AB9B181B885432A38404AB9B1803
:10D270001B88A06863840BF02FFF07001420FCF7C5
:10D280003DFB0500134B066108221093119610A96F
:10D2900010C00DF052FA104BEB60BB69B34206D1DF
:10D2A000BD612000FCF750F920005DB0F0BD2B619E
:10D2B000F6E7C04650AC0200C0BA0200A0BA0200B5
:10D2C000B0BA0200D0BA0200CF8102003B81020056
:10D2D000E0BA020045D3010065810200F0B5040008
:10D2E0000E00150085B01F000CAB1B881030019399
:10D2F00009F0B2FD268065801820FCF7FFFA02AE27
:10D30000050033000AAA03CA03C32F6028000827B8
:10D3100000213A000C300DF02CFA3A003100281DA3
:10D320000DF00BFA064B02226B61200000230199DD
:10D33000A5600A43E360A2802362636205B0F0BD8A
:10D340008F810200F0B50B898DB00593CB68060084
:10D3500004934B88828C9A420ED1049C049B059ABC
:10D360009B181B1B032B3BDD62882188012308A827
:10D3700009F07CFD0434F1E7428C9A4230D1049CE0
:10D38000049B059A9B181B1B032B29DD238828204F
:10D3900006936388F7680793124B08930023099359
:10D3A000FCF7ACFAC0236A460500029308AB03CB36
:10D3B00003C233000699079A2800FFF78FFF3B68E6
:10D3C00029005B6838009847002807D0002D05D059
:10D3D000280009F05BFC2800FCF7B0FA0434CFE722
:10D3E0000DB0F0BD4D82020070B5040090B08068B1
:10D3F0000AF027FF022101401AD1A38D002B17D07C
:10D400000C4B6A4604931023E568A18505910293AD
:10D4100004AB41CB41C20A00230006A8FFF75EFF20
:10D420002B6806A99B682800984706A809F02EFCDF
:10D4300010B070BD4D820200002815D00060416020
:10D440008260C360046145618661C76144460462CD
:10D450004C464462544684625C46C462644604633B
:10D460006E46466374468463002A06D0C46B043C4F
:10D47000043A25681560B442F9D18C6BA6464E6B10
:10D48000B546002B06D0CC6B043C043B1D682560E0
:10D49000B442F9D10C6BA446CC6AA3468C6AA2466E
:10D4A0004C6AA1460C6AA046CF698E694D690C6929
:10D4B000CB688A680868496870470060416082608C
:10D4C000C360046145618661C761444604624C469D
:10D4D0004462544684625C46C462644604636E4699
:10D4E000466374468463C46B043C043925680D604C
:10D4F000B442F9D1C769866945690469704700601B
:10D5000041608260C360046145618661C7614446D1
:10D5100004624C464462544684625C46C46264467B
:10D5200004636C4644637446846304697047846B87
:10D53000A646446BA546046BA446C46AA346846A07
:10D54000A246446AA146046AA046C769866945693D
:10D550000469C368826800684168704710B5041E9A
:10D560000CD00DF046F9431EE3189C4208D22278F5
:10D570001978013B21705A700134F6E7014810BD5B
:10D580000020FCE717FCFFFFF0B585B002900C1EF1
:10D590002AD00023C217161A56400193019B30006F
:10D5A0005D1C63190A215F1E039304F017F94942B9
:10D5B0003031397030000A2104F02AF84742060061
:10D5C000002F0FD1029B002B04DA2D23019D039A1B
:10D5D00002351370002320006355FFF7BFFF3800AA
:10D5E00005B0F0BD0195D9E7004FF8E717FCFFFF44
:10D5F00010B582604A4304004160002A0ADD074BEF
:10D6000090009A4201DD01204042FCF777F920604A
:10D61000200010BD00230360FAE7C046FEFFFF1F95
:10D620004A688B6870B58360534304000D00426004
:10D63000002B12DD0A4A9E003000934201DD0120DA
:10D640004042FCF75BF9002320602A68D158C150A2
:10D6500004339E42FAD1200070BD00230360FAE734
:10D66000FEFFFF1F014B03607047C04668AC02001D
:10D6700030B500684488A1420CDA8588AA4209DAEC
:10D68000002907DB002A05DB544340180019837189
:10D69000002030BD0048FCE717FCFFFFF0B5070095
:10D6A00085B00E001D0000291FDD002B1DD0046871
:10D6B000638803938B4200DD0391A3880293934216
:10D6C00000DD0292002306340193019B029A9342EB
:10D6D0000EDA29002000039A0DF02FF83B68AD19EF
:10D6E0005B88E418019B0133EEE7024805B0F0BD0A
:10D6F0000020FBE717FCFFFFF8B504000D00160043
:10D700001F00002901DB002A02DA0E4B2360F8BD5E
:10D71000100048430630FCF7F1F8206009F008FCDF
:10D7200023685D8023689E80002F06D03B00320076
:10D7300029002000FFF7B2FFE9E720000BF019FCF9
:10D74000E5E7C04668AC0200F0B5060087B00D1EE4
:10D7500004D1244B0360300007B0F0BD00200F005F
:10D760000400010001903B78002B1AD03022524275
:10D7700094469C446246092A11D90A2B0AD1019B7E
:10D78000241801330193A14200DA21000020040093
:10D790000137E8E70028FBD001340020F8E701203A
:10D7A000F6E76A46928809B212B23000FFF7A4FF8A
:10D7B00033689C1D03AB1F002A78002ACBD01100D0
:10D7C0003039092903D81A7001330135F4E70022F2
:10D7D0001A70BB42F9D938000CF08FFF3B00207063
:10D7E0000134F2E768AC0200F0B5040089B006A885
:10D7F0000E0002921D00FCF70BF8236802995A886C
:10D80000914235DA9B889D4232DA1F2E30D9079B30
:10D8100001939E422CDC0523002273430393069B55
:10D820000493039B04999B18A03BCB5C00210593B8
:10D83000AE18029BCF1823685888019087420EDAF1
:10D840009888B0420BDDDB1910270F410198704317
:10D850001B1805980740781E87417F429F71013150
:10D860000529E6D10132052ADBD1002009B0F0BD3F
:10D870000048FBE717FCFFFFF7B504680700638863
:10D880000E1E01931EDD994218DA00230634009320
:10D890003B68009A9B889A4212DA019BA1199D1B52
:10D8A0002A0020000CF049FF601931000BF053FBF7
:10D8B0003B685B88E418009B0133E8E70BF059FBF9
:10D8C000002000E00048FEBD17FCFFFF10B5054832
:10D8D000054C206009F02FFB044A054920000CF09C
:10D8E000FEFE10BD68AC02001427002000200020BE
:10D8F000498F020070B5002817D1114D2E68002EF7
:10D9000011D108300CF0D5FE066046600D4E0400C3
:10D910003368002B02D10CF07BF8306023682C6058
:10D920009B00F3586360286870BD012206490748D0
:10D930000B681340F8D1026043600A60F4E7C04608
:10D940001C2700202827002018270020202700203F
:10D95000002370B504000160436099420AD1064D6E
:10D960002B68002B02D10CF053F8286023689B0031
:10D97000EB586360200070BD28270020436810B575
:10D980000400002B02D104480CF0EBFC6068036833
:10D990001B69984710BDC046F0BA0200436810B535
:10D9A0000400002B02D104480CF0DBFC6068036823
:10D9B0009B69984710BDC046F0BA0200436810B595
:10D9C0000400002B02D104480CF0CBFC6068036813
:10D9D0005B6A984710BDC046F0BA020010B504005B
:10D9E00002F0EAFC034B1B68002B01D02000984793
:10D9F00010BDC04630270020F0B58BB0050001F007
:10DA000075FE002000F0B4FD036807001B6998470D
:10DA10003B6804009B69380098473B6806005B6AD6
:10DA2000380098470300288810380B2862D803F084
:10DA30005BFD063E6161615B616161676179AF8831
:10DA4000200039000CF054FA22006B7B583201930D
:10DA50001378A8799C46022361460B43137004ABEC
:10DA60001F80012304AA9370D07013006A461279B4
:10DA7000E91D9A722B000622163305A809930CF0B3
:10DA80005CFE29000B2004AB06220E31C0180CF0FE
:10DA900054FE94346368A360A06800282AD0C36849
:10DAA00004A99847A368002BF4D01B69F3E7200072
:10DAB0002F49AF880CF01CFA22000220583213784C
:10DAC000A9798343137004AB1F809970A0346368F5
:10DAD000A360A06800280DD0C36804A99847A36874
